{
  "contractName": "buyback",
  "abi": [
    {
      "inputs": [
        {
          "internalType": "contract LandToken",
          "name": "_token",
          "type": "address"
        },
        {
          "internalType": "contract LandTokenStake",
          "name": "_LS",
          "type": "address"
        }
      ],
      "stateMutability": "nonpayable",
      "type": "constructor"
    },
    {
      "inputs": [],
      "name": "LS",
      "outputs": [
        {
          "internalType": "contract LandTokenStake",
          "name": "",
          "type": "address"
        }
      ],
      "stateMutability": "view",
      "type": "function",
      "constant": true
    },
    {
      "inputs": [
        {
          "internalType": "uint256",
          "name": "",
          "type": "uint256"
        }
      ],
      "name": "paths",
      "outputs": [
        {
          "internalType": "address",
          "name": "",
          "type": "address"
        }
      ],
      "stateMutability": "view",
      "type": "function",
      "constant": true
    },
    {
      "inputs": [],
      "name": "token",
      "outputs": [
        {
          "internalType": "contract LandToken",
          "name": "",
          "type": "address"
        }
      ],
      "stateMutability": "view",
      "type": "function",
      "constant": true
    },
    {
      "inputs": [],
      "name": "approveTokens",
      "outputs": [],
      "stateMutability": "nonpayable",
      "type": "function"
    },
    {
      "inputs": [
        {
          "internalType": "address",
          "name": "newTokenAddy",
          "type": "address"
        },
        {
          "internalType": "address",
          "name": "newRouter",
          "type": "address"
        }
      ],
      "name": "approveNewToken",
      "outputs": [],
      "stateMutability": "nonpayable",
      "type": "function"
    },
    {
      "inputs": [
        {
          "internalType": "address",
          "name": "x",
          "type": "address"
        }
      ],
      "name": "modifyPath1",
      "outputs": [],
      "stateMutability": "nonpayable",
      "type": "function"
    },
    {
      "inputs": [
        {
          "internalType": "address",
          "name": "first",
          "type": "address"
        },
        {
          "internalType": "address",
          "name": "second",
          "type": "address"
        }
      ],
      "name": "modifyPath2",
      "outputs": [],
      "stateMutability": "nonpayable",
      "type": "function"
    },
    {
      "inputs": [
        {
          "internalType": "address",
          "name": "x",
          "type": "address"
        }
      ],
      "name": "changeRouter",
      "outputs": [],
      "stateMutability": "nonpayable",
      "type": "function"
    },
    {
      "inputs": [
        {
          "internalType": "address",
          "name": "x",
          "type": "address"
        }
      ],
      "name": "getMoney",
      "outputs": [],
      "stateMutability": "nonpayable",
      "type": "function"
    },
    {
      "inputs": [
        {
          "internalType": "uint256",
          "name": "amountIn",
          "type": "uint256"
        },
        {
          "internalType": "uint256",
          "name": "min",
          "type": "uint256"
        },
        {
          "internalType": "uint256",
          "name": "time",
          "type": "uint256"
        }
      ],
      "name": "swapperV2",
      "outputs": [],
      "stateMutability": "nonpayable",
      "type": "function"
    },
    {
      "inputs": [
        {
          "internalType": "uint256",
          "name": "x",
          "type": "uint256"
        }
      ],
      "name": "sendBuyBack",
      "outputs": [],
      "stateMutability": "nonpayable",
      "type": "function"
    }
  ],
  "bytecode": "0x60806040527fffffffffffffffffffffffffffffffffffffffffffffffffffffffffffffffff60005573e9e7cea3dedca5984780bafc599bd69add087d56600560006101000a81548173ffffffffffffffffffffffffffffffffffffffff021916908373ffffffffffffffffffffffffffffffffffffffff16021790555073cf0febd3f17cef5b47b0cd257acf6025c5bff3b7600660006101000a81548173ffffffffffffffffffffffffffffffffffffffff021916908373ffffffffffffffffffffffffffffffffffffffff1602179055503480156100de57600080fd5b50604051620014da380380620014da8339818101604052604081101561010357600080fd5b81019080805190602001909291908051906020019092919050505081600160006101000a81548173ffffffffffffffffffffffffffffffffffffffff021916908373ffffffffffffffffffffffffffffffffffffffff16021790555080600260006101000a81548173ffffffffffffffffffffffffffffffffffffffff021916908373ffffffffffffffffffffffffffffffffffffffff160217905550604051806060016040528073e9e7cea3dedca5984780bafc599bd69add087d5673ffffffffffffffffffffffffffffffffffffffff1673ffffffffffffffffffffffffffffffffffffffff16815260200173bb4cdb9cbd36b01bd1cbaebf2de08d9173bc095c73ffffffffffffffffffffffffffffffffffffffff1673ffffffffffffffffffffffffffffffffffffffff1681526020018373ffffffffffffffffffffffffffffffffffffffff1673ffffffffffffffffffffffffffffffffffffffff1681525060039060036102779291906102c0565b5033600460006101000a81548173ffffffffffffffffffffffffffffffffffffffff021916908373ffffffffffffffffffffffffffffffffffffffff160217905550505061038d565b828054828255906000526020600020908101928215610339579160200282015b828111156103385782518260006101000a81548173ffffffffffffffffffffffffffffffffffffffff021916908373ffffffffffffffffffffffffffffffffffffffff160217905550916020019190600101906102e0565b5b509050610346919061034a565b5090565b61038a91905b8082111561038657600081816101000a81549073ffffffffffffffffffffffffffffffffffffffff021916905550600101610350565b5090565b90565b61113d806200039d6000396000f3fe608060405234801561001057600080fd5b50600436106100a95760003560e01c8063d320db0a11610071578063d320db0a1461020c578063eb0f5cc61461024e578063f61e21f914610298578063fc0c546a146102fc578063fc1bcd4914610346578063fd68f223146103b4576100a9565b8063340ac20f146100ae5780633e2be8c8146100f2578063717d5527146101565780638343fd7a1461019a578063c4f07195146101de575b600080fd5b6100f0600480360360208110156100c457600080fd5b81019080803573ffffffffffffffffffffffffffffffffffffffff1690602001909291905050506103be565b005b6101546004803603604081101561010857600080fd5b81019080803573ffffffffffffffffffffffffffffffffffffffff169060200190929190803573ffffffffffffffffffffffffffffffffffffffff16906020019092919050505061045c565b005b6101986004803603602081101561016c57600080fd5b81019080803573ffffffffffffffffffffffffffffffffffffffff169060200190929190505050610585565b005b6101dc600480360360208110156101b057600080fd5b81019080803573ffffffffffffffffffffffffffffffffffffffff1690602001909291905050506106e4565b005b61020a600480360360208110156101f457600080fd5b81019080803590602001909291905050506107ef565b005b61024c6004803603606081101561022257600080fd5b810190808035906020019092919080359060200190929190803590602001909291905050506108d9565b005b610256610b44565b604051808273ffffffffffffffffffffffffffffffffffffffff1673ffffffffffffffffffffffffffffffffffffffff16815260200191505060405180910390f35b6102fa600480360360408110156102ae57600080fd5b81019080803573ffffffffffffffffffffffffffffffffffffffff169060200190929190803573ffffffffffffffffffffffffffffffffffffffff169060200190929190505050610b6a565b005b610304610ca8565b604051808273ffffffffffffffffffffffffffffffffffffffff1673ffffffffffffffffffffffffffffffffffffffff16815260200191505060405180910390f35b6103726004803603602081101561035c57600080fd5b8101908080359060200190929190505050610cce565b604051808273ffffffffffffffffffffffffffffffffffffffff1673ffffffffffffffffffffffffffffffffffffffff16815260200191505060405180910390f35b6103bc610d0a565b005b600460009054906101000a900473ffffffffffffffffffffffffffffffffffffffff1673ffffffffffffffffffffffffffffffffffffffff163373ffffffffffffffffffffffffffffffffffffffff161461041857600080fd5b80600660006101000a81548173ffffffffffffffffffffffffffffffffffffffff021916908373ffffffffffffffffffffffffffffffffffffffff16021790555050565b600460009054906101000a900473ffffffffffffffffffffffffffffffffffffffff1673ffffffffffffffffffffffffffffffffffffffff163373ffffffffffffffffffffffffffffffffffffffff16146104b657600080fd5b60008290508073ffffffffffffffffffffffffffffffffffffffff1663095ea7b3836000546040518363ffffffff1660e01b8152600401808373ffffffffffffffffffffffffffffffffffffffff1673ffffffffffffffffffffffffffffffffffffffff16815260200182815260200192505050602060405180830381600087803b15801561054457600080fd5b505af1158015610558573d6000803e3d6000fd5b505050506040513d602081101561056e57600080fd5b810190808051906020019092919050505050505050565b600460009054906101000a900473ffffffffffffffffffffffffffffffffffffffff1673ffffffffffffffffffffffffffffffffffffffff163373ffffffffffffffffffffffffffffffffffffffff16146105df57600080fd5b600081905060006105b48273ffffffffffffffffffffffffffffffffffffffff166318a49c966040518163ffffffff1660e01b815260040160206040518083038186803b15801561062f57600080fd5b505afa158015610643573d6000803e3d6000fd5b505050506040513d602081101561065957600080fd5b81019080805190602001909291905050508161067157fe5b0490508173ffffffffffffffffffffffffffffffffffffffff16637c5b4a37826040518263ffffffff1660e01b815260040180828152602001915050600060405180830381600087803b1580156106c757600080fd5b505af11580156106db573d6000803e3d6000fd5b50505050505050565b600460009054906101000a900473ffffffffffffffffffffffffffffffffffffffff1673ffffffffffffffffffffffffffffffffffffffff163373ffffffffffffffffffffffffffffffffffffffff161461073e57600080fd5b6003600061074c9190610f6a565b60405180604001604052808273ffffffffffffffffffffffffffffffffffffffff1673ffffffffffffffffffffffffffffffffffffffff168152602001600160009054906101000a900473ffffffffffffffffffffffffffffffffffffffff1673ffffffffffffffffffffffffffffffffffffffff1673ffffffffffffffffffffffffffffffffffffffff1681525060039060026107eb929190610f8b565b5050565b600460009054906101000a900473ffffffffffffffffffffffffffffffffffffffff1673ffffffffffffffffffffffffffffffffffffffff163373ffffffffffffffffffffffffffffffffffffffff161461084957600080fd5b600260009054906101000a900473ffffffffffffffffffffffffffffffffffffffff1673ffffffffffffffffffffffffffffffffffffffff1663b95ffbce826040518263ffffffff1660e01b815260040180828152602001915050600060405180830381600087803b1580156108be57600080fd5b505af11580156108d2573d6000803e3d6000fd5b5050505050565b600460009054906101000a900473ffffffffffffffffffffffffffffffffffffffff1673ffffffffffffffffffffffffffffffffffffffff163373ffffffffffffffffffffffffffffffffffffffff161461093357600080fd5b600660009054906101000a900473ffffffffffffffffffffffffffffffffffffffff1673ffffffffffffffffffffffffffffffffffffffff166338ed17398484600330866040518663ffffffff1660e01b815260040180868152602001858152602001806020018473ffffffffffffffffffffffffffffffffffffffff1673ffffffffffffffffffffffffffffffffffffffff1681526020018381526020018281038252858181548152602001915080548015610a4557602002820191906000526020600020905b8160009054906101000a900473ffffffffffffffffffffffffffffffffffffffff1673ffffffffffffffffffffffffffffffffffffffff16815260200190600101908083116109fb575b50509650505050505050600060405180830381600087803b158015610a6957600080fd5b505af1158015610a7d573d6000803e3d6000fd5b505050506040513d6000823e3d601f19601f820116820180604052506020811015610aa757600080fd5b8101908080516040519392919084640100000000821115610ac757600080fd5b83820191506020820185811115610add57600080fd5b8251866020820283011164010000000082111715610afa57600080fd5b8083526020830192505050908051906020019060200280838360005b83811015610b31578082015181840152602081019050610b16565b5050505090500160405250505050505050565b600260009054906101000a900473ffffffffffffffffffffffffffffffffffffffff1681565b600460009054906101000a900473ffffffffffffffffffffffffffffffffffffffff1673ffffffffffffffffffffffffffffffffffffffff163373ffffffffffffffffffffffffffffffffffffffff1614610bc457600080fd5b60036000610bd29190610f6a565b60405180606001604052808373ffffffffffffffffffffffffffffffffffffffff1673ffffffffffffffffffffffffffffffffffffffff1681526020018273ffffffffffffffffffffffffffffffffffffffff1673ffffffffffffffffffffffffffffffffffffffff168152602001600160009054906101000a900473ffffffffffffffffffffffffffffffffffffffff1673ffffffffffffffffffffffffffffffffffffffff1673ffffffffffffffffffffffffffffffffffffffff168152506003906003610ca3929190611015565b505050565b600160009054906101000a900473ffffffffffffffffffffffffffffffffffffffff1681565b60038181548110610cdb57fe5b906000526020600020016000915054906101000a900473ffffffffffffffffffffffffffffffffffffffff1681565b600460009054906101000a900473ffffffffffffffffffffffffffffffffffffffff1673ffffffffffffffffffffffffffffffffffffffff163373ffffffffffffffffffffffffffffffffffffffff1614610d6457600080fd5b600160009054906101000a900473ffffffffffffffffffffffffffffffffffffffff1673ffffffffffffffffffffffffffffffffffffffff1663095ea7b3600260009054906101000a900473ffffffffffffffffffffffffffffffffffffffff166000546040518363ffffffff1660e01b8152600401808373ffffffffffffffffffffffffffffffffffffffff1673ffffffffffffffffffffffffffffffffffffffff16815260200182815260200192505050602060405180830381600087803b158015610e3157600080fd5b505af1158015610e45573d6000803e3d6000fd5b505050506040513d6020811015610e5b57600080fd5b810190808051906020019092919050505050600560009054906101000a900473ffffffffffffffffffffffffffffffffffffffff1673ffffffffffffffffffffffffffffffffffffffff1663095ea7b373cf0febd3f17cef5b47b0cd257acf6025c5bff3b76000546040518363ffffffff1660e01b8152600401808373ffffffffffffffffffffffffffffffffffffffff1673ffffffffffffffffffffffffffffffffffffffff16815260200182815260200192505050602060405180830381600087803b158015610f2c57600080fd5b505af1158015610f40573d6000803e3d6000fd5b505050506040513d6020811015610f5657600080fd5b810190808051906020019092919050505050565b5080546000825590600052602060002090810190610f88919061109f565b50565b828054828255906000526020600020908101928215611004579160200282015b828111156110035782518260006101000a81548173ffffffffffffffffffffffffffffffffffffffff021916908373ffffffffffffffffffffffffffffffffffffffff16021790555091602001919060010190610fab565b5b50905061101191906110c4565b5090565b82805482825590600052602060002090810192821561108e579160200282015b8281111561108d5782518260006101000a81548173ffffffffffffffffffffffffffffffffffffffff021916908373ffffffffffffffffffffffffffffffffffffffff16021790555091602001919060010190611035565b5b50905061109b91906110c4565b5090565b6110c191905b808211156110bd5760008160009055506001016110a5565b5090565b90565b61110491905b8082111561110057600081816101000a81549073ffffffffffffffffffffffffffffffffffffffff0219169055506001016110ca565b5090565b9056fea2646970667358221220c30bc0efc0c9b683e94f6a19975a09cd2a2657557bce0f123aef8b0f3f1d3f6864736f6c63430006020033",
  "source": "pragma solidity ^0.6.0;\n\n\nimport './LandTokenStake.sol';\nimport '@uniswap/v2-periphery/contracts/interfaces/IUniswapV2Router02.sol'; \nimport './stake.sol';\n\ncontract buyback {\n    \n    uint256 MAX_INT = 2**256 - 1; \n    LandToken public token;\n    LandTokenStake public LS;\n    address[] public paths;\n    address owner; \n    IBEP20 stablecoin = IBEP20(0xe9e7CEA3DedcA5984780Bafc599bD69ADd087D56);\n \n    constructor(LandToken _token, LandTokenStake _LS) public {\n        token = _token;\n        LS = _LS; \n        paths = [0xe9e7CEA3DedcA5984780Bafc599bD69ADd087D56, 0xbb4CdB9CBd36B01bD1cBaEBF2De08d9173bc095c, address(_token)]; \n        owner = msg.sender; \n    }\n\n\n    \n\n    IUniswapV2Router02 router = IUniswapV2Router02(0xcF0feBd3f17CEf5b47b0cD257aCf6025c5BFf3b7);\n\n\n    function approveTokens() public {\n        require(msg.sender==owner);\n        token.approve(address(LS), MAX_INT);\n        stablecoin.approve(0xcF0feBd3f17CEf5b47b0cD257aCf6025c5BFf3b7, MAX_INT);\n    }\n\n    function approveNewToken(address newTokenAddy, address newRouter) public {\n        require(msg.sender==owner);\n        IBEP20 newToken = IBEP20(newTokenAddy);\n        newToken.approve(newRouter, MAX_INT); \n    }\n\n    function modifyPath1(address x) public {\n        require(msg.sender==owner);\n        delete paths; \n        paths = [x, address(token)];\n    }\n    \n    function modifyPath2(address first, address second) public {\n        require(msg.sender==owner);\n        delete paths; \n        paths = [first, second, address(token)];\n    }\n\n    function changeRouter(address x) public {\n        require(msg.sender==owner);\n        router = IUniswapV2Router02(x);\n    }\n\n    function getMoney(address x) public {\n        require(msg.sender==owner); \n        stake pv = stake(x);\n\n        //calculates the daily buyback based on the idea of 25% vault value buyback annually\n        uint amount = pv.totalVaultAmount() / 1460;\n        pv.adminWithdraw(amount); \n    }\n    \n    function swapperV2 (uint amountIn, uint min, uint time) public {\n        require(msg.sender==owner);\n        router.swapExactTokensForTokens(amountIn, min, paths, address(this), time);\n    }\n\n    function sendBuyBack(uint x) public {\n        require(msg.sender==owner);\n        LS.addToRewardPool(x); \n    }\n}\n",
  "sourcePath": "/home/no/Desktop/ls/LS_FINAL_TEST/contracts/buyback.sol",
  "compiler": {
    "name": "solc",
    "version": "0.6.2+commit.bacdbe57.Emscripten.clang"
  },
  "schemaVersion": "3.4.2",
  "updatedAt": "2021-08-02T08:36:15.153Z",
  "networkType": "ethereum",
  "devdoc": {
    "methods": {}
  },
  "userdoc": {
    "methods": {}
  }
}