{
  "contractName": "LandTokenStake",
  "abi": [
    {
      "inputs": [
        {
          "internalType": "contract LandToken",
          "name": "_token",
          "type": "address"
        },
        {
          "internalType": "address",
          "name": "_owner",
          "type": "address"
        }
      ],
      "stateMutability": "nonpayable",
      "type": "constructor"
    },
    {
      "inputs": [
        {
          "internalType": "address",
          "name": "",
          "type": "address"
        }
      ],
      "name": "amountStaked",
      "outputs": [
        {
          "internalType": "uint256",
          "name": "",
          "type": "uint256"
        }
      ],
      "stateMutability": "view",
      "type": "function",
      "constant": true
    },
    {
      "inputs": [
        {
          "internalType": "address",
          "name": "",
          "type": "address"
        }
      ],
      "name": "hasStaked",
      "outputs": [
        {
          "internalType": "bool",
          "name": "",
          "type": "bool"
        }
      ],
      "stateMutability": "view",
      "type": "function",
      "constant": true
    },
    {
      "inputs": [
        {
          "internalType": "address",
          "name": "",
          "type": "address"
        }
      ],
      "name": "isStaked",
      "outputs": [
        {
          "internalType": "bool",
          "name": "",
          "type": "bool"
        }
      ],
      "stateMutability": "view",
      "type": "function",
      "constant": true
    },
    {
      "inputs": [],
      "name": "rewardPerToken",
      "outputs": [
        {
          "internalType": "uint256",
          "name": "",
          "type": "uint256"
        }
      ],
      "stateMutability": "view",
      "type": "function",
      "constant": true
    },
    {
      "inputs": [],
      "name": "rewardPool",
      "outputs": [
        {
          "internalType": "uint256",
          "name": "",
          "type": "uint256"
        }
      ],
      "stateMutability": "view",
      "type": "function",
      "constant": true
    },
    {
      "inputs": [
        {
          "internalType": "address",
          "name": "",
          "type": "address"
        }
      ],
      "name": "rewardTally",
      "outputs": [
        {
          "internalType": "uint256",
          "name": "",
          "type": "uint256"
        }
      ],
      "stateMutability": "view",
      "type": "function",
      "constant": true
    },
    {
      "inputs": [
        {
          "internalType": "uint256",
          "name": "",
          "type": "uint256"
        }
      ],
      "name": "stakers",
      "outputs": [
        {
          "internalType": "address",
          "name": "",
          "type": "address"
        }
      ],
      "stateMutability": "view",
      "type": "function",
      "constant": true
    },
    {
      "inputs": [],
      "name": "tokensStaked",
      "outputs": [
        {
          "internalType": "uint256",
          "name": "",
          "type": "uint256"
        }
      ],
      "stateMutability": "view",
      "type": "function",
      "constant": true
    },
    {
      "inputs": [
        {
          "internalType": "uint256",
          "name": "amount",
          "type": "uint256"
        }
      ],
      "name": "deposit",
      "outputs": [],
      "stateMutability": "nonpayable",
      "type": "function"
    },
    {
      "inputs": [
        {
          "internalType": "uint256",
          "name": "r",
          "type": "uint256"
        }
      ],
      "name": "distribute",
      "outputs": [],
      "stateMutability": "nonpayable",
      "type": "function"
    },
    {
      "inputs": [
        {
          "internalType": "address",
          "name": "x",
          "type": "address"
        }
      ],
      "name": "computeReward",
      "outputs": [
        {
          "internalType": "uint256",
          "name": "reward",
          "type": "uint256"
        }
      ],
      "stateMutability": "view",
      "type": "function",
      "constant": true
    },
    {
      "inputs": [],
      "name": "withdrawReward",
      "outputs": [],
      "stateMutability": "nonpayable",
      "type": "function"
    },
    {
      "inputs": [
        {
          "internalType": "uint256",
          "name": "withdrawAmt",
          "type": "uint256"
        }
      ],
      "name": "withdraw",
      "outputs": [],
      "stateMutability": "nonpayable",
      "type": "function"
    },
    {
      "inputs": [
        {
          "internalType": "uint256",
          "name": "x",
          "type": "uint256"
        }
      ],
      "name": "addToRewardPool",
      "outputs": [],
      "stateMutability": "nonpayable",
      "type": "function"
    }
  ],
  "bytecode": "0x6080604052600060045569021e19e0c9bab240000060065534801561002357600080fd5b50604051611a05380380611a058339818101604052604081101561004657600080fd5b810190808051906020019092919080519060200190929190505050806000806101000a81548173ffffffffffffffffffffffffffffffffffffffff021916908373ffffffffffffffffffffffffffffffffffffffff16021790555081600160006101000a81548173ffffffffffffffffffffffffffffffffffffffff021916908373ffffffffffffffffffffffffffffffffffffffff1602179055505050611912806100f36000396000f3fe608060405234801561001057600080fd5b50600436106100ea5760003560e01c8063c885bc581161008c578063e6b955a211610066578063e6b955a2146102c3578063ea515c2b1461031b578063ef40a67014610373578063fd5e6dd1146103cb576100ea565b8063c885bc581461023f578063c93c8f3414610249578063cd3daf9d146102a5576100ea565b806391c05b0b116100c857806391c05b0b1461019757806399a03316146101c5578063b6b55f25146101e3578063b95ffbce14610211576100ea565b80632e1a7d4d146100ef5780636177fd181461011d57806366666aa914610179575b600080fd5b61011b6004803603602081101561010557600080fd5b8101908080359060200190929190505050610439565b005b61015f6004803603602081101561013357600080fd5b81019080803573ffffffffffffffffffffffffffffffffffffffff16906020019092919050505061091a565b604051808215151515815260200191505060405180910390f35b61018161093a565b6040518082815260200191505060405180910390f35b6101c3600480360360208110156101ad57600080fd5b8101908080359060200190929190505050610940565b005b6101cd610ac6565b6040518082815260200191505060405180910390f35b61020f600480360360208110156101f957600080fd5b8101908080359060200190929190505050610acc565b005b61023d6004803603602081101561022757600080fd5b8101908080359060200190929190505050610ed3565b005b610247611183565b005b61028b6004803603602081101561025f57600080fd5b81019080803573ffffffffffffffffffffffffffffffffffffffff16906020019092919050505061138f565b604051808215151515815260200191505060405180910390f35b6102ad6113af565b6040518082815260200191505060405180910390f35b610305600480360360208110156102d957600080fd5b81019080803573ffffffffffffffffffffffffffffffffffffffff1690602001909291905050506113b5565b6040518082815260200191505060405180910390f35b61035d6004803603602081101561033157600080fd5b81019080803573ffffffffffffffffffffffffffffffffffffffff1690602001909291905050506113cd565b6040518082815260200191505060405180910390f35b6103b56004803603602081101561038957600080fd5b81019080803573ffffffffffffffffffffffffffffffffffffffff16906020019092919050505061151a565b6040518082815260200191505060405180910390f35b6103f7600480360360208110156103e157600080fd5b8101908080359060200190929190505050611532565b604051808273ffffffffffffffffffffffffffffffffffffffff1673ffffffffffffffffffffffffffffffffffffffff16815260200191505060405180910390f35b60011515600960003373ffffffffffffffffffffffffffffffffffffffff1673ffffffffffffffffffffffffffffffffffffffff16815260200190815260200160002060009054906101000a900460ff161515146104ff576040517f08c379a00000000000000000000000000000000000000000000000000000000081526004018080602001828103825260108152602001807f4e6f206465706f73697420666f756e640000000000000000000000000000000081525060200191505060405180910390fd5b80600760003373ffffffffffffffffffffffffffffffffffffffff1673ffffffffffffffffffffffffffffffffffffffff168152602001908152602001600020541015610597576040517f08c379a00000000000000000000000000000000000000000000000000000000081526004018080602001828103825260258152602001806118976025913960400191505060405180910390fd5b60006105a2336113cd565b11156105b1576105b0611183565b5b6105c86105c06004548361156e565b6006546115f4565b600a60003373ffffffffffffffffffffffffffffffffffffffff1673ffffffffffffffffffffffffffffffffffffffff168152602001908152602001600020541015610658576000600a60003373ffffffffffffffffffffffffffffffffffffffff1673ffffffffffffffffffffffffffffffffffffffff168152602001908152602001600020819055506106fb565b6106b7600a60003373ffffffffffffffffffffffffffffffffffffffff1673ffffffffffffffffffffffffffffffffffffffff168152602001908152602001600020546106b26106aa6004548561156e565b6006546115f4565b61163e565b600a60003373ffffffffffffffffffffffffffffffffffffffff1673ffffffffffffffffffffffffffffffffffffffff168152602001908152602001600020819055505b610744600760003373ffffffffffffffffffffffffffffffffffffffff1673ffffffffffffffffffffffffffffffffffffffff168152602001908152602001600020548261163e565b600760003373ffffffffffffffffffffffffffffffffffffffff1673ffffffffffffffffffffffffffffffffffffffff168152602001908152602001600020819055506107936002548261163e565b6002819055506000600760003373ffffffffffffffffffffffffffffffffffffffff1673ffffffffffffffffffffffffffffffffffffffff1681526020019081526020016000205414156108325760001515600960003373ffffffffffffffffffffffffffffffffffffffff1673ffffffffffffffffffffffffffffffffffffffff16815260200190815260200160002060009054906101000a905050505b600160009054906101000a900473ffffffffffffffffffffffffffffffffffffffff1673ffffffffffffffffffffffffffffffffffffffff1663a9059cbb33836040518363ffffffff1660e01b8152600401808373ffffffffffffffffffffffffffffffffffffffff1673ffffffffffffffffffffffffffffffffffffffff16815260200182815260200192505050602060405180830381600087803b1580156108db57600080fd5b505af11580156108ef573d6000803e3d6000fd5b505050506040513d602081101561090557600080fd5b81019080805190602001909291905050505050565b60096020528060005260406000206000915054906101000a900460ff1681565b60035481565b6000809054906101000a900473ffffffffffffffffffffffffffffffffffffffff1673ffffffffffffffffffffffffffffffffffffffff163373ffffffffffffffffffffffffffffffffffffffff161461099957600080fd5b600060025411610a11576040517f08c379a00000000000000000000000000000000000000000000000000000000081526004018080602001828103825260108152602001807f6e6f20746f6b656e73207374616b65640000000000000000000000000000000081525060200191505060405180910390fd5b600354811115610a89576040517f08c379a000000000000000000000000000000000000000000000000000000000815260040180806020018281038252601d8152602001807f646973747269627574696f6e206c6172676572207468616e20706f6f6c00000081525060200191505060405180910390fd5b610aab600454610aa6610a9e8460065461156e565b6002546115f4565b611688565b600481905550610abd6003548261163e565b60038190555050565b60025481565b6000610aed610add6006548461156e565b69022393acc16c6ba57eb56115f4565b9050610b3881600760003373ffffffffffffffffffffffffffffffffffffffff1673ffffffffffffffffffffffffffffffffffffffff16815260200190815260200160002054611688565b600760003373ffffffffffffffffffffffffffffffffffffffff1673ffffffffffffffffffffffffffffffffffffffff16815260200190815260200160002081905550610bda600a60003373ffffffffffffffffffffffffffffffffffffffff1673ffffffffffffffffffffffffffffffffffffffff16815260200190815260200160002054610bd5610bcd6004548561156e565b6006546115f4565b611688565b600a60003373ffffffffffffffffffffffffffffffffffffffff1673ffffffffffffffffffffffffffffffffffffffff16815260200190815260200160002081905550610c2960025482611688565b600281905550610c44600354610c3f848461163e565b611688565b60038190555060011515600860003373ffffffffffffffffffffffffffffffffffffffff1673ffffffffffffffffffffffffffffffffffffffff16815260200190815260200160002060009054906101000a900460ff16151514610d06576005339080600181540180825580915050600190039060005260206000200160009091909190916101000a81548173ffffffffffffffffffffffffffffffffffffffff021916908373ffffffffffffffffffffffffffffffffffffffff1602179055505b6001600860003373ffffffffffffffffffffffffffffffffffffffff1673ffffffffffffffffffffffffffffffffffffffff16815260200190815260200160002060006101000a81548160ff0219169083151502179055506001600960003373ffffffffffffffffffffffffffffffffffffffff1673ffffffffffffffffffffffffffffffffffffffff16815260200190815260200160002060006101000a81548160ff021916908315150217905550600160009054906101000a900473ffffffffffffffffffffffffffffffffffffffff1673ffffffffffffffffffffffffffffffffffffffff166323b872dd3330856040518463ffffffff1660e01b8152600401808473ffffffffffffffffffffffffffffffffffffffff1673ffffffffffffffffffffffffffffffffffffffff1681526020018373ffffffffffffffffffffffffffffffffffffffff1673ffffffffffffffffffffffffffffffffffffffff1681526020018281526020019350505050602060405180830381600087803b158015610e9357600080fd5b505af1158015610ea7573d6000803e3d6000fd5b505050506040513d6020811015610ebd57600080fd5b8101908080519060200190929190505050505050565b80600160009054906101000a900473ffffffffffffffffffffffffffffffffffffffff1673ffffffffffffffffffffffffffffffffffffffff1663dd62ed3e33306040518363ffffffff1660e01b8152600401808373ffffffffffffffffffffffffffffffffffffffff1673ffffffffffffffffffffffffffffffffffffffff1681526020018273ffffffffffffffffffffffffffffffffffffffff1673ffffffffffffffffffffffffffffffffffffffff1681526020019250505060206040518083038186803b158015610fa757600080fd5b505afa158015610fbb573d6000803e3d6000fd5b505050506040513d6020811015610fd157600080fd5b810190808051906020019092919050505011611055576040517f08c379a00000000000000000000000000000000000000000000000000000000081526004018080602001828103825260168152602001807f696e73756666696369656e7420616c6c6f77616e63650000000000000000000081525060200191505060405180910390fd5b61106160035482611688565b600381905550600160009054906101000a900473ffffffffffffffffffffffffffffffffffffffff1673ffffffffffffffffffffffffffffffffffffffff166323b872dd3330846040518463ffffffff1660e01b8152600401808473ffffffffffffffffffffffffffffffffffffffff1673ffffffffffffffffffffffffffffffffffffffff1681526020018373ffffffffffffffffffffffffffffffffffffffff1673ffffffffffffffffffffffffffffffffffffffff1681526020018281526020019350505050602060405180830381600087803b15801561114457600080fd5b505af1158015611158573d6000803e3d6000fd5b505050506040513d602081101561116e57600080fd5b81019080805190602001909291905050505050565b600061118e336113cd565b11611201576040517f08c379a000000000000000000000000000000000000000000000000000000000815260040180806020018281038252600f8152602001807f6e6f2072657761726420666f756e64000000000000000000000000000000000081525060200191505060405180910390fd5b600061120c336113cd565b905061126461125c600760003373ffffffffffffffffffffffffffffffffffffffff1673ffffffffffffffffffffffffffffffffffffffff1681526020019081526020016000205460045461156e565b6006546115f4565b600a60003373ffffffffffffffffffffffffffffffffffffffff1673ffffffffffffffffffffffffffffffffffffffff16815260200190815260200160002081905550600160009054906101000a900473ffffffffffffffffffffffffffffffffffffffff1673ffffffffffffffffffffffffffffffffffffffff1663a9059cbb33836040518363ffffffff1660e01b8152600401808373ffffffffffffffffffffffffffffffffffffffff1673ffffffffffffffffffffffffffffffffffffffff16815260200182815260200192505050602060405180830381600087803b15801561135057600080fd5b505af1158015611364573d6000803e3d6000fd5b505050506040513d602081101561137a57600080fd5b81019080805190602001909291905050505050565b60086020528060005260406000206000915054906101000a900460ff1681565b60045481565b600a6020528060005260406000206000915090505481565b600061142561141d600760008573ffffffffffffffffffffffffffffffffffffffff1673ffffffffffffffffffffffffffffffffffffffff1681526020019081526020016000205460045461156e565b6006546115f4565b600a60008473ffffffffffffffffffffffffffffffffffffffff1673ffffffffffffffffffffffffffffffffffffffff1681526020019081526020016000205411156114745760009050611515565b6115126114cd6114c5600760008673ffffffffffffffffffffffffffffffffffffffff1673ffffffffffffffffffffffffffffffffffffffff1681526020019081526020016000205460045461156e565b6006546115f4565b600a60008573ffffffffffffffffffffffffffffffffffffffff1673ffffffffffffffffffffffffffffffffffffffff1681526020019081526020016000205461163e565b90505b919050565b60076020528060005260406000206000915090505481565b6005818154811061153f57fe5b906000526020600020016000915054906101000a900473ffffffffffffffffffffffffffffffffffffffff1681565b60008083141561158157600090506115ee565b600082840290508284828161159257fe5b04146115e9576040517f08c379a00000000000000000000000000000000000000000000000000000000081526004018080602001828103825260218152602001806118bc6021913960400191505060405180910390fd5b809150505b92915050565b600061163683836040518060400160405280601a81526020017f536166654d6174683a206469766973696f6e206279207a65726f000000000000815250611710565b905092915050565b600061168083836040518060400160405280601e81526020017f536166654d6174683a207375627472616374696f6e206f766572666c6f7700008152506117d6565b905092915050565b600080828401905083811015611706576040517f08c379a000000000000000000000000000000000000000000000000000000000815260040180806020018281038252601b8152602001807f536166654d6174683a206164646974696f6e206f766572666c6f77000000000081525060200191505060405180910390fd5b8091505092915050565b600080831182906117bc576040517f08c379a00000000000000000000000000000000000000000000000000000000081526004018080602001828103825283818151815260200191508051906020019080838360005b83811015611781578082015181840152602081019050611766565b50505050905090810190601f1680156117ae5780820380516001836020036101000a031916815260200191505b509250505060405180910390fd5b5060008385816117c857fe5b049050809150509392505050565b6000838311158290611883576040517f08c379a00000000000000000000000000000000000000000000000000000000081526004018080602001828103825283818151815260200191508051906020019080838360005b8381101561184857808201518184015260208101905061182d565b50505050905090810190601f1680156118755780820380516001836020036101000a031916815260200191505b509250505060405180910390fd5b506000838503905080915050939250505056fe43616e2774207769746864726177206d6f7265207468616e20796f7572206465706f736974536166654d6174683a206d756c7469706c69636174696f6e206f766572666c6f77a2646970667358221220491851970dc283db95f0b08217c089ab5917b3bc5be50138de4738698226b49c64736f6c63430006020033",
  "source": "pragma solidity ^0.6.0;\n\nimport \"./LandToken.sol\";\n\n    \n\n\ncontract LandTokenStake {\n    \n   \n    using SafeMath for uint256;\n\n    address owner;\n    LandToken private token; \n    uint public tokensStaked;\n    uint public rewardPool; \n    uint public rewardPerToken = 0; \n    address [] public stakers; \n    uint thing = 10000000000000000000000;\n    mapping(address => uint) public amountStaked;  \n    mapping(address => bool) public hasStaked;\n    mapping(address => bool) public isStaked; \n    mapping(address => uint) public rewardTally; \n\n    constructor(LandToken _token, address _owner) public {\n        owner = _owner; \n        token = _token; \n    }\n\n\n    function deposit(uint amount) public {\n         \n        \n        uint amountGoingInAdjusted = SafeMath.div(SafeMath.mul(thing, amount), 10101010101010101010101);\n                                                                              \n        \n        amountStaked[msg.sender] = SafeMath.add(amountGoingInAdjusted, amountStaked[msg.sender]); \n        rewardTally[msg.sender] = SafeMath.add(rewardTally[msg.sender], SafeMath.div(SafeMath.mul(rewardPerToken, amountGoingInAdjusted), thing));\n        tokensStaked = SafeMath.add(tokensStaked, amountGoingInAdjusted);\n        rewardPool = SafeMath.add(rewardPool, SafeMath.sub(amount, amountGoingInAdjusted));\n\n        \n        //add to stakers\n        if (hasStaked[msg.sender] != true) {\n            stakers.push(msg.sender); \n        }\n\n        //verify has and is staked\n        hasStaked[msg.sender] = true;\n        isStaked[msg.sender] = true; \n\n        token.transferFrom(msg.sender, address(this), amount);\n\n    }\n\n    function distribute(uint r) public {\n        require(msg.sender==owner);\n        require(tokensStaked > 0, \"no tokens staked\");\n        require(r <= rewardPool, \"distribution larger than pool\");\n        rewardPerToken = SafeMath.add(rewardPerToken, SafeMath.div(SafeMath.mul(r, thing), tokensStaked)); \n        rewardPool = SafeMath.sub(rewardPool, r);\n\n    }\n\n    function computeReward(address x) public view returns(uint reward) {\n        if (rewardTally[x] > SafeMath.div(SafeMath.mul(amountStaked[x], rewardPerToken), thing)) {\n            return 0;\n        }\n        else {\n        return SafeMath.sub(SafeMath.div(SafeMath.mul(amountStaked[x], rewardPerToken), thing), rewardTally[x]); \n        }\n    }\n\n    function withdrawReward() public  {\n        require (computeReward(msg.sender) > 0, \"no reward found\"); \n        uint rewardAmt = computeReward(msg.sender);\n        rewardTally[msg.sender] = SafeMath.div(SafeMath.mul(amountStaked[msg.sender], rewardPerToken), thing);\n        token.transfer(msg.sender, rewardAmt);\n    }\n\n    function withdraw(uint withdrawAmt) public {\n        \n        require(isStaked[msg.sender] == true, \"No deposit found\");\n        require(amountStaked[msg.sender] >= withdrawAmt, \"Can't withdraw more than your deposit\");\n     \n        \n        if (computeReward(msg.sender) > 0) {\n            withdrawReward();\n        }\n        \n        if (rewardTally[msg.sender] < SafeMath.div(SafeMath.mul(rewardPerToken, withdrawAmt), thing)) {\n            rewardTally[msg.sender] = 0;\n        }\n        else {\n            rewardTally[msg.sender] = SafeMath.sub(rewardTally[msg.sender], SafeMath.div(SafeMath.mul(rewardPerToken, withdrawAmt), thing));\n        }\n        amountStaked[msg.sender] = SafeMath.sub(amountStaked[msg.sender], withdrawAmt); \n       \n        tokensStaked = SafeMath.sub(tokensStaked, withdrawAmt); \n        \n\n        if (amountStaked[msg.sender] == 0) {    \n         isStaked[msg.sender] == false; \n        }\n\n        token.transfer(msg.sender, withdrawAmt);\n    }\n\n    function addToRewardPool(uint x) public {\n        require(token.allowance(msg.sender, address(this)) > x, \"insufficient allowance\" );\n        rewardPool = SafeMath.add(rewardPool, x); \n        \n        token.transferFrom(msg.sender, address(this), x);\n    }\n\n\n\n}",
  "sourcePath": "/home/no/Desktop/ls/LS_FINAL_TEST/contracts/LandTokenStake.sol",
  "compiler": {
    "name": "solc",
    "version": "0.6.2+commit.bacdbe57.Emscripten.clang"
  },
  "schemaVersion": "3.4.2",
  "updatedAt": "2021-08-02T08:36:15.114Z",
  "networkType": "ethereum",
  "devdoc": {
    "methods": {}
  },
  "userdoc": {
    "methods": {}
  }
}