{
  "_format": "hh-sol-artifact-1",
  "contractName": "Stake",
  "sourceName": "contracts/core/Stake.sol",
  "abi": [
    {
      "inputs": [
        {
          "internalType": "address",
          "name": "_houseAddress",
          "type": "address"
        },
        {
          "internalType": "address",
          "name": "_assetToken",
          "type": "address"
        },
        {
          "internalType": "address",
          "name": "_landToken",
          "type": "address"
        }
      ],
      "stateMutability": "nonpayable",
      "type": "constructor"
    },
    {
      "anonymous": false,
      "inputs": [
        {
          "indexed": true,
          "internalType": "address",
          "name": "previousOwner",
          "type": "address"
        },
        {
          "indexed": true,
          "internalType": "address",
          "name": "newOwner",
          "type": "address"
        }
      ],
      "name": "OwnershipTransferred",
      "type": "event"
    },
    {
      "anonymous": false,
      "inputs": [
        {
          "indexed": true,
          "internalType": "address",
          "name": "user",
          "type": "address"
        },
        {
          "indexed": true,
          "internalType": "uint256",
          "name": "tokenId",
          "type": "uint256"
        },
        {
          "indexed": false,
          "internalType": "uint256",
          "name": "amount",
          "type": "uint256"
        }
      ],
      "name": "Stake",
      "type": "event"
    },
    {
      "anonymous": false,
      "inputs": [
        {
          "indexed": true,
          "internalType": "address",
          "name": "user",
          "type": "address"
        },
        {
          "indexed": true,
          "internalType": "uint256",
          "name": "tokenId",
          "type": "uint256"
        },
        {
          "indexed": false,
          "internalType": "uint256",
          "name": "amount",
          "type": "uint256"
        }
      ],
      "name": "Unstake",
      "type": "event"
    },
    {
      "inputs": [
        {
          "internalType": "address",
          "name": "",
          "type": "address"
        }
      ],
      "name": "amountStaked",
      "outputs": [
        {
          "internalType": "uint256",
          "name": "",
          "type": "uint256"
        }
      ],
      "stateMutability": "view",
      "type": "function"
    },
    {
      "inputs": [
        {
          "internalType": "address",
          "name": "",
          "type": "address"
        }
      ],
      "name": "hasStaked",
      "outputs": [
        {
          "internalType": "bool",
          "name": "",
          "type": "bool"
        }
      ],
      "stateMutability": "view",
      "type": "function"
    },
    {
      "inputs": [],
      "name": "owner",
      "outputs": [
        {
          "internalType": "address",
          "name": "",
          "type": "address"
        }
      ],
      "stateMutability": "view",
      "type": "function"
    },
    {
      "inputs": [],
      "name": "renounceOwnership",
      "outputs": [],
      "stateMutability": "nonpayable",
      "type": "function"
    },
    {
      "inputs": [
        {
          "internalType": "address",
          "name": "_address",
          "type": "address"
        }
      ],
      "name": "setHouseContractAddress",
      "outputs": [],
      "stateMutability": "nonpayable",
      "type": "function"
    },
    {
      "inputs": [
        {
          "internalType": "uint256",
          "name": "amount",
          "type": "uint256"
        },
        {
          "internalType": "uint256",
          "name": "tokenId",
          "type": "uint256"
        }
      ],
      "name": "stake",
      "outputs": [],
      "stateMutability": "payable",
      "type": "function"
    },
    {
      "inputs": [
        {
          "internalType": "address",
          "name": "newOwner",
          "type": "address"
        }
      ],
      "name": "transferOwnership",
      "outputs": [],
      "stateMutability": "nonpayable",
      "type": "function"
    },
    {
      "inputs": [
        {
          "internalType": "uint256",
          "name": "amount",
          "type": "uint256"
        },
        {
          "internalType": "uint256",
          "name": "tokenId",
          "type": "uint256"
        }
      ],
      "name": "unstake",
      "outputs": [],
      "stateMutability": "nonpayable",
      "type": "function"
    }
  ],
  "bytecode": "0x608060405234801561001057600080fd5b5060405161107838038061107883398101604081905261002f916100e6565b6100383361007a565b600180546001600160a01b039485166001600160a01b031991821617909155600280549385169382169390931790925560038054919093169116179055610128565b600080546001600160a01b038381166001600160a01b0319831681178455604051919092169283917f8be0079c531659141344cd1fd0a4f28419497f9722a3daafe3b4186f6b6457e09190a35050565b80516001600160a01b03811681146100e157600080fd5b919050565b6000806000606084860312156100fa578283fd5b610103846100ca565b9250610111602085016100ca565b915061011f604085016100ca565b90509250925092565b610f41806101376000396000f3fe60806040526004361061007b5760003560e01c8063c93c8f341161004e578063c93c8f34146100f7578063dcd663c214610137578063ef40a67014610157578063f2fde38b1461019257600080fd5b8063715018a6146100805780637b0472f0146100975780638da5cb5b146100aa5780639e2c8a5b146100d7575b600080fd5b34801561008c57600080fd5b506100956101b2565b005b6100956100a5366004610e75565b61021d565b3480156100b657600080fd5b506000546040516001600160a01b0390911681526020015b60405180910390f35b3480156100e357600080fd5b506100956100f2366004610e75565b6105f9565b34801561010357600080fd5b50610127610112366004610dec565b60056020526000908152604090205460ff1681565b60405190151581526020016100ce565b34801561014357600080fd5b50610095610152366004610dec565b610abd565b34801561016357600080fd5b50610184610172366004610dec565b60046020526000908152604090205481565b6040519081526020016100ce565b34801561019e57600080fd5b506100956101ad366004610dec565b610b46565b6000546001600160a01b031633146102115760405162461bcd60e51b815260206004820181905260248201527f4f776e61626c653a2063616c6c6572206973206e6f7420746865206f776e657260448201526064015b60405180910390fd5b61021b6000610c28565b565b6001546040516318b9af1f60e01b81526004810183905260009182916001600160a01b03909116906318b9af1f90602401604080518083038186803b15801561026557600080fd5b505afa158015610279573d6000803e3d6000fd5b505050506040513d601f19601f8201168201806040525081019061029d9190610e0f565b90925090506001600160a01b03821633146102fa5760405162461bcd60e51b815260206004820152601760248201527f596f7520646f206e6f74206f776e2074686973204e46540000000000000000006044820152606401610208565b806103475760405162461bcd60e51b815260206004820152601360248201527f41637469766174696f6e207265717569726564000000000000000000000000006044820152606401610208565b600084116103975760405162461bcd60e51b815260206004820152600a60248201527f4e6f204465706f736974000000000000000000000000000000000000000000006044820152606401610208565b6001546040516388049bb160e01b8152600481018590526001600160a01b03909116906388049bb190602401600060405180830381600087803b1580156103dd57600080fd5b505af11580156103f1573d6000803e3d6000fd5b50506002546040517f23b872dd000000000000000000000000000000000000000000000000000000008152336004820152306024820152604481018890526001600160a01b0390911692506323b872dd9150606401602060405180830381600087803b15801561046057600080fd5b505af1158015610474573d6000803e3d6000fd5b505050506040513d601f19601f820116820180604052508101906104989190610e43565b506001546040517fe2bbb15800000000000000000000000000000000000000000000000000000000815260048101859052602481018690526001600160a01b039091169063e2bbb15890604401600060405180830381600087803b1580156104ff57600080fd5b505af1158015610513573d6000803e3d6000fd5b50503360009081526004602052604081208054889450909250610537908490610e96565b90915550503360009081526005602052604090205460ff166105bb576006805460018181019092557ff652222313e28459528d920b65115c16c04f3efc82aaedc97be59f3f377c0d3f01805473ffffffffffffffffffffffffffffffffffffffff1916339081179091556000908152600560205260409020805460ff191690911790555b604051848152839033907f5af417134f72a9d41143ace85b0a26dce6f550f894f2cbc1eeee8810603d91b6906020015b60405180910390a350505050565b6001546040516318b9af1f60e01b81526004810183905260009182916001600160a01b03909116906318b9af1f90602401604080518083038186803b15801561064157600080fd5b505afa158015610655573d6000803e3d6000fd5b505050506040513d601f19601f820116820180604052508101906106799190610e0f565b90925090506001600160a01b03821633146106d65760405162461bcd60e51b815260206004820152601760248201527f596f7520646f206e6f74206f776e2074686973204e46540000000000000000006044820152606401610208565b806107235760405162461bcd60e51b815260206004820152601360248201527f41637469766174696f6e207265717569726564000000000000000000000000006044820152606401610208565b600084116107735760405162461bcd60e51b815260206004820152600b60248201527f4e6f2057697468647261770000000000000000000000000000000000000000006044820152606401610208565b6001546040517f90facd5a0000000000000000000000000000000000000000000000000000000081526004810185905285916001600160a01b0316906390facd5a9060240160206040518083038186803b1580156107d057600080fd5b505afa1580156107e4573d6000803e3d6000fd5b505050506040513d601f19601f820116820180604052508101906108089190610e5d565b10156108565760405162461bcd60e51b815260206004820152601a60248201527f5769746864726177206d6f7265207468616e2062616c616e63650000000000006044820152606401610208565b336000908152600460205260409020548411156108b55760405162461bcd60e51b815260206004820152601a60248201527f5769746864726177206d6f7265207468616e2062616c616e63650000000000006044820152606401610208565b6001546040516388049bb160e01b8152600481018590526001600160a01b03909116906388049bb190602401600060405180830381600087803b1580156108fb57600080fd5b505af115801561090f573d6000803e3d6000fd5b50506002546040517fa9059cbb000000000000000000000000000000000000000000000000000000008152336004820152602481018890526001600160a01b03909116925063a9059cbb9150604401602060405180830381600087803b15801561097857600080fd5b505af115801561098c573d6000803e3d6000fd5b505050506040513d601f19601f820116820180604052508101906109b09190610e43565b506001546040517f441a3e7000000000000000000000000000000000000000000000000000000000815260048101859052602481018690526001600160a01b039091169063441a3e7090604401600060405180830381600087803b158015610a1757600080fd5b505af1158015610a2b573d6000803e3d6000fd5b50503360009081526004602052604081208054889450909250610a4f908490610eae565b909155505033600090815260046020526040902054610a8957610a7133610c85565b336000908152600560205260409020805460ff191690555b604051848152839033907ff960dbf9e5d0682f7a298ed974e33a28b4464914b7a2bfac12ae419a9afeb280906020016105eb565b6000546001600160a01b03163314610b175760405162461bcd60e51b815260206004820181905260248201527f4f776e61626c653a2063616c6c6572206973206e6f7420746865206f776e65726044820152606401610208565b6001805473ffffffffffffffffffffffffffffffffffffffff19166001600160a01b0392909216919091179055565b6000546001600160a01b03163314610ba05760405162461bcd60e51b815260206004820181905260248201527f4f776e61626c653a2063616c6c6572206973206e6f7420746865206f776e65726044820152606401610208565b6001600160a01b038116610c1c5760405162461bcd60e51b815260206004820152602660248201527f4f776e61626c653a206e6577206f776e657220697320746865207a65726f206160448201527f64647265737300000000000000000000000000000000000000000000000000006064820152608401610208565b610c2581610c28565b50565b600080546001600160a01b0383811673ffffffffffffffffffffffffffffffffffffffff19831681178455604051919092169283917f8be0079c531659141344cd1fd0a4f28419497f9722a3daafe3b4186f6b6457e09190a35050565b60005b600654811015610cef57816001600160a01b031660068281548110610cbd57634e487b7160e01b600052603260045260246000fd5b6000918252602090912001546001600160a01b03161415610cdd57610cef565b80610ce781610ec5565b915050610c88565b60068054610cff90600190610eae565b81548110610d1d57634e487b7160e01b600052603260045260246000fd5b600091825260209091200154600680546001600160a01b039092169183908110610d5757634e487b7160e01b600052603260045260246000fd5b9060005260206000200160006101000a8154816001600160a01b0302191690836001600160a01b031602179055506006805480610da457634e487b7160e01b600052603160045260246000fd5b6000828152602090208101600019908101805473ffffffffffffffffffffffffffffffffffffffff191690550190555050565b80518015158114610de757600080fd5b919050565b600060208284031215610dfd578081fd5b8135610e0881610ef6565b9392505050565b60008060408385031215610e21578081fd5b8251610e2c81610ef6565b9150610e3a60208401610dd7565b90509250929050565b600060208284031215610e54578081fd5b610e0882610dd7565b600060208284031215610e6e578081fd5b5051919050565b60008060408385031215610e87578182fd5b50508035926020909101359150565b60008219821115610ea957610ea9610ee0565b500190565b600082821015610ec057610ec0610ee0565b500390565b6000600019821415610ed957610ed9610ee0565b5060010190565b634e487b7160e01b600052601160045260246000fd5b6001600160a01b0381168114610c2557600080fdfea2646970667358221220e96c8e7289fb22524a128039c2e797d652147ba72989c3dcd7286d70440d258564736f6c63430008040033",
  "linkReferences": {},
  "deployedLinkReferences": {}
}