{
    "contractName": "stake",
    "abi": [
        {
            "inputs": [
                {
                    "internalType": "contract LandToken",
                    "name": "_token",
                    "type": "address"
                },
                {
                    "internalType": "address",
                    "name": "_buyback",
                    "type": "address"
                },
                {
                    "internalType": "address",
                    "name": "_owner",
                    "type": "address"
                }
            ],
            "stateMutability": "nonpayable",
            "type": "constructor"
        },
        {
            "inputs": [
                {
                    "internalType": "address",
                    "name": "",
                    "type": "address"
                }
            ],
            "name": "balanceOf",
            "outputs": [
                {
                    "internalType": "uint256",
                    "name": "",
                    "type": "uint256"
                }
            ],
            "stateMutability": "view",
            "type": "function",
            "constant": true
        },
        {
            "inputs": [
                {
                    "internalType": "address",
                    "name": "",
                    "type": "address"
                }
            ],
            "name": "bankedHarvestBUSD",
            "outputs": [
                {
                    "internalType": "uint256",
                    "name": "",
                    "type": "uint256"
                }
            ],
            "stateMutability": "view",
            "type": "function",
            "constant": true
        },
        {
            "inputs": [
                {
                    "internalType": "address",
                    "name": "",
                    "type": "address"
                }
            ],
            "name": "bankedHarvestLand",
            "outputs": [
                {
                    "internalType": "uint256",
                    "name": "",
                    "type": "uint256"
                }
            ],
            "stateMutability": "view",
            "type": "function",
            "constant": true
        },
        {
            "inputs": [],
            "name": "buyback",
            "outputs": [
                {
                    "internalType": "address",
                    "name": "",
                    "type": "address"
                }
            ],
            "stateMutability": "view",
            "type": "function",
            "constant": true
        },
        {
            "inputs": [
                {
                    "internalType": "address",
                    "name": "",
                    "type": "address"
                }
            ],
            "name": "depositStart",
            "outputs": [
                {
                    "internalType": "uint256",
                    "name": "",
                    "type": "uint256"
                }
            ],
            "stateMutability": "view",
            "type": "function",
            "constant": true
        },
        {
            "inputs": [
                {
                    "internalType": "address",
                    "name": "",
                    "type": "address"
                }
            ],
            "name": "hasStaked",
            "outputs": [
                {
                    "internalType": "bool",
                    "name": "",
                    "type": "bool"
                }
            ],
            "stateMutability": "view",
            "type": "function",
            "constant": true
        },
        {
            "inputs": [
                {
                    "internalType": "address",
                    "name": "",
                    "type": "address"
                }
            ],
            "name": "initialDepositStart",
            "outputs": [
                {
                    "internalType": "uint256",
                    "name": "",
                    "type": "uint256"
                }
            ],
            "stateMutability": "view",
            "type": "function",
            "constant": true
        },
        {
            "inputs": [
                {
                    "internalType": "address",
                    "name": "",
                    "type": "address"
                }
            ],
            "name": "isDeposited",
            "outputs": [
                {
                    "internalType": "bool",
                    "name": "",
                    "type": "bool"
                }
            ],
            "stateMutability": "view",
            "type": "function",
            "constant": true
        },
        {
            "inputs": [],
            "name": "landRatio",
            "outputs": [
                {
                    "internalType": "uint256",
                    "name": "",
                    "type": "uint256"
                }
            ],
            "stateMutability": "view",
            "type": "function",
            "constant": true
        },
        {
            "inputs": [],
            "name": "lastBuyBack",
            "outputs": [
                {
                    "internalType": "uint256",
                    "name": "",
                    "type": "uint256"
                }
            ],
            "stateMutability": "view",
            "type": "function",
            "constant": true
        },
        {
            "inputs": [],
            "name": "totalVaultAmount",
            "outputs": [
                {
                    "internalType": "uint256",
                    "name": "",
                    "type": "uint256"
                }
            ],
            "stateMutability": "view",
            "type": "function",
            "constant": true
        },
        {
            "inputs": [],
            "name": "totalVaultCapacity",
            "outputs": [
                {
                    "internalType": "uint256",
                    "name": "",
                    "type": "uint256"
                }
            ],
            "stateMutability": "view",
            "type": "function",
            "constant": true
        },
        {
            "inputs": [],
            "name": "yieldFarm",
            "outputs": [
                {
                    "internalType": "uint256",
                    "name": "",
                    "type": "uint256"
                }
            ],
            "stateMutability": "view",
            "type": "function",
            "constant": true
        },
        {
            "inputs": [
                {
                    "internalType": "uint256",
                    "name": "newCapacity",
                    "type": "uint256"
                }
            ],
            "name": "changeVaultCapacity",
            "outputs": [],
            "stateMutability": "nonpayable",
            "type": "function"
        },
        {
            "inputs": [
                {
                    "internalType": "uint256",
                    "name": "newRatio",
                    "type": "uint256"
                }
            ],
            "name": "changeLandRatio",
            "outputs": [],
            "stateMutability": "nonpayable",
            "type": "function"
        },
        {
            "inputs": [
                {
                    "internalType": "uint256",
                    "name": "newAPR",
                    "type": "uint256"
                }
            ],
            "name": "setCurrentAPR",
            "outputs": [],
            "stateMutability": "nonpayable",
            "type": "function"
        },
        {
            "inputs": [
                {
                    "internalType": "uint256",
                    "name": "newAPR",
                    "type": "uint256"
                }
            ],
            "name": "setLandAPR",
            "outputs": [],
            "stateMutability": "nonpayable",
            "type": "function"
        },
        {
            "inputs": [
                {
                    "internalType": "uint256",
                    "name": "amountSpend",
                    "type": "uint256"
                }
            ],
            "name": "deposit",
            "outputs": [],
            "stateMutability": "nonpayable",
            "type": "function"
        },
        {
            "inputs": [
                {
                    "internalType": "uint256",
                    "name": "amount",
                    "type": "uint256"
                }
            ],
            "name": "withdraw",
            "outputs": [],
            "stateMutability": "nonpayable",
            "type": "function"
        },
        {
            "inputs": [],
            "name": "harvest",
            "outputs": [],
            "stateMutability": "nonpayable",
            "type": "function"
        },
        {
            "inputs": [],
            "name": "getHarvestAmountBUSD",
            "outputs": [
                {
                    "internalType": "uint256",
                    "name": "",
                    "type": "uint256"
                }
            ],
            "stateMutability": "view",
            "type": "function",
            "constant": true
        },
        {
            "inputs": [],
            "name": "getHarvestAmountLand",
            "outputs": [
                {
                    "internalType": "uint256",
                    "name": "",
                    "type": "uint256"
                }
            ],
            "stateMutability": "view",
            "type": "function",
            "constant": true
        },
        {
            "inputs": [
                {
                    "internalType": "uint256",
                    "name": "amount",
                    "type": "uint256"
                }
            ],
            "name": "adminWithdraw",
            "outputs": [],
            "stateMutability": "nonpayable",
            "type": "function"
        },
        {
            "inputs": [
                {
                    "internalType": "uint256",
                    "name": "amount",
                    "type": "uint256"
                }
            ],
            "name": "yieldFarming",
            "outputs": [],
            "stateMutability": "nonpayable",
            "type": "function"
        },
        {
            "inputs": [
                {
                    "internalType": "uint256",
                    "name": "amount",
                    "type": "uint256"
                }
            ],
            "name": "adminDeposit",
            "outputs": [],
            "stateMutability": "nonpayable",
            "type": "function"
        },
        {
            "inputs": [
                {
                    "internalType": "uint256",
                    "name": "amount",
                    "type": "uint256"
                }
            ],
            "name": "yieldFarmDeposit",
            "outputs": [],
            "stateMutability": "nonpayable",
            "type": "function"
        },
        {
            "inputs": [
                {
                    "internalType": "address",
                    "name": "x",
                    "type": "address"
                }
            ],
            "name": "storeHarvest",
            "outputs": [],
            "stateMutability": "nonpayable",
            "type": "function"
        },
        {
            "inputs": [],
            "name": "getAmountWithdrawn",
            "outputs": [
                {
                    "internalType": "uint256",
                    "name": "",
                    "type": "uint256"
                }
            ],
            "stateMutability": "view",
            "type": "function",
            "constant": true
        },
        {
            "inputs": [],
            "name": "getStakers",
            "outputs": [
                {
                    "internalType": "address[]",
                    "name": "",
                    "type": "address[]"
                }
            ],
            "stateMutability": "view",
            "type": "function",
            "constant": true
        }
    ],
    "bytecode": "0x608060405273e9e7cea3dedca5984780bafc599bd69add087d56600260006101000a81548173ffffffffffffffffffffffffffffffffffffffff021916908373ffffffffffffffffffffffffffffffffffffffff160217905550694944b294dd6ee440000060065560086007556000600855661b6825230e3daf601255662c893c58f7243c60135534801561009357600080fd5b5060405161319c38038061319c833981810160405260608110156100b657600080fd5b81019080805190602001909291908051906020019092919080519060200190929190505050806000806101000a81548173ffffffffffffffffffffffffffffffffffffffff021916908373ffffffffffffffffffffffffffffffffffffffff16021790555082600160006101000a81548173ffffffffffffffffffffffffffffffffffffffff021916908373ffffffffffffffffffffffffffffffffffffffff16021790555081600960006101000a81548173ffffffffffffffffffffffffffffffffffffffff021916908373ffffffffffffffffffffffffffffffffffffffff160217905550505050612fed806101af6000396000f3fe608060405234801561001057600080fd5b50600436106101cf5760003560e01c80637373202411610104578063a92258de116100a2578063eeec69b711610071578063eeec69b714610709578063f448fdd614610727578063f8ec691114610755578063ff87930a1461079f576101cf565b8063a92258de1461061d578063b6b55f2514610661578063c93c8f341461068f578063ddfc49b7146106eb576101cf565b80638521fb1c116100de5780638521fb1c1461054b57806385293ba714610569578063928ff63d146105c157806394ae97be146105ef576101cf565b8063737320241461046957806373feb761146104c55780637c5b4a371461051d576101cf565b80632e1a7d4d1161017157806343352d611161014b57806343352d611461038a5780634641257d146103e957806370a08231146103f357806371d2dbc11461044b576101cf565b80632e1a7d4d146103005780633b0c01d11461032e5780633b8d07101461035c576101cf565b80631e092efb116101ad5780631e092efb1461024e5780631e846a9a1461026c5780631ed573c9146102c45780632c5f1723146102e2576101cf565b80630636b5f3146101d4578063086877941461020257806318a49c9614610230575b600080fd5b610200600480360360208110156101ea57600080fd5b81019080803590602001909291905050506107f7565b005b61022e6004803603602081101561021857600080fd5b81019080803590602001909291905050506108cd565b005b610238610999565b6040518082815260200191505060405180910390f35b61025661099f565b6040518082815260200191505060405180910390f35b6102ae6004803603602081101561028257600080fd5b81019080803573ffffffffffffffffffffffffffffffffffffffff1690602001909291905050506109a5565b6040518082815260200191505060405180910390f35b6102cc6109bd565b6040518082815260200191505060405180910390f35b6102ea6109c3565b6040518082815260200191505060405180910390f35b61032c6004803603602081101561031657600080fd5b8101908080359060200190929190505050610acc565b005b61035a6004803603602081101561034457600080fd5b8101908080359060200190929190505050610f3d565b005b6103886004803603602081101561037257600080fd5b8101908080359060200190929190505050611013565b005b6103926110df565b6040518080602001828103825283818151815260200191508051906020019060200280838360005b838110156103d55780820151818401526020810190506103ba565b505050509050019250505060405180910390f35b6103f161116d565b005b6104356004803603602081101561040957600080fd5b81019080803573ffffffffffffffffffffffffffffffffffffffff16906020019092919050505061165c565b6040518082815260200191505060405180910390f35b610453611674565b6040518082815260200191505060405180910390f35b6104ab6004803603602081101561047f57600080fd5b81019080803573ffffffffffffffffffffffffffffffffffffffff16906020019092919050505061167e565b604051808215151515815260200191505060405180910390f35b610507600480360360208110156104db57600080fd5b81019080803573ffffffffffffffffffffffffffffffffffffffff16906020019092919050505061169e565b6040518082815260200191505060405180910390f35b6105496004803603602081101561053357600080fd5b81019080803590602001909291905050506116b6565b005b6105536118f3565b6040518082815260200191505060405180910390f35b6105ab6004803603602081101561057f57600080fd5b81019080803573ffffffffffffffffffffffffffffffffffffffff1690602001909291905050506118f9565b6040518082815260200191505060405180910390f35b6105ed600480360360208110156105d757600080fd5b8101908080359060200190929190505050611911565b005b61061b6004803603602081101561060557600080fd5b8101908080359060200190929190505050611add565b005b61065f6004803603602081101561063357600080fd5b81019080803573ffffffffffffffffffffffffffffffffffffffff169060200190929190505050611bca565b005b61068d6004803603602081101561067757600080fd5b8101908080359060200190929190505050611e43565b005b6106d1600480360360208110156106a557600080fd5b81019080803573ffffffffffffffffffffffffffffffffffffffff169060200190929190505050612404565b604051808215151515815260200191505060405180910390f35b6106f3612424565b6040518082815260200191505060405180910390f35b61071161252d565b6040518082815260200191505060405180910390f35b6107536004803603602081101561073d57600080fd5b8101908080359060200190929190505050612533565b005b61075d6125ff565b604051808273ffffffffffffffffffffffffffffffffffffffff1673ffffffffffffffffffffffffffffffffffffffff16815260200191505060405180910390f35b6107e1600480360360208110156107b557600080fd5b81019080803573ffffffffffffffffffffffffffffffffffffffff169060200190929190505050612625565b6040518082815260200191505060405180910390f35b6000809054906101000a900473ffffffffffffffffffffffffffffffffffffffff1673ffffffffffffffffffffffffffffffffffffffff163373ffffffffffffffffffffffffffffffffffffffff161461085057600080fd5b662c893c58f7243c811115801561086e5750660be0545bfda3438110155b6108c3576040517f08c379a0000000000000000000000000000000000000000000000000000000008152600401808060200182810382526024815260200180612f0b6024913960400191505060405180910390fd5b8060128190555050565b6000809054906101000a900473ffffffffffffffffffffffffffffffffffffffff1673ffffffffffffffffffffffffffffffffffffffff163373ffffffffffffffffffffffffffffffffffffffff161461092657600080fd5b60045481111561093557600080fd5b6109416004548261263d565b600481905550610996333083600260009054906101000a900473ffffffffffffffffffffffffffffffffffffffff1673ffffffffffffffffffffffffffffffffffffffff16612687909392919063ffffffff16565b50565b60035481565b60055481565b60116020528060005260406000206000915090505481565b60065481565b600080610a0f42600c60003373ffffffffffffffffffffffffffffffffffffffff1673ffffffffffffffffffffffffffffffffffffffff1681526020019081526020016000205461263d565b90506000610a6b610a636301e33731600b60003373ffffffffffffffffffffffffffffffffffffffff1673ffffffffffffffffffffffffffffffffffffffff16815260200190815260200160002054612774565b6012546127fa565b90506000610ac1610a7c8385612774565b601160003373ffffffffffffffffffffffffffffffffffffffff1673ffffffffffffffffffffffffffffffffffffffff16815260200190815260200160002054612844565b905080935050505090565b60011515600e60003373ffffffffffffffffffffffffffffffffffffffff1673ffffffffffffffffffffffffffffffffffffffff16815260200190815260200160002060009054906101000a900460ff16151514610b92576040517f08c379a000000000000000000000000000000000000000000000000000000000815260040180806020018281038252601a8152602001807f4572726f722c206e6f2070726576696f7573206465706f73697400000000000081525060200191505060405180910390fd5b600b60003373ffffffffffffffffffffffffffffffffffffffff1673ffffffffffffffffffffffffffffffffffffffff16815260200190815260200160002054811115610c2a576040517f08c379a0000000000000000000000000000000000000000000000000000000008152600401808060200182810382526025815260200180612e636025913960400191505060405180910390fd5b600160009054906101000a900473ffffffffffffffffffffffffffffffffffffffff1673ffffffffffffffffffffffffffffffffffffffff166370a08231336040518263ffffffff1660e01b8152600401808273ffffffffffffffffffffffffffffffffffffffff1673ffffffffffffffffffffffffffffffffffffffff16815260200191505060206040518083038186803b158015610cc957600080fd5b505afa158015610cdd573d6000803e3d6000fd5b505050506040513d6020811015610cf357600080fd5b8101908080519060200190929190505050610d4f600b60003373ffffffffffffffffffffffffffffffffffffffff1673ffffffffffffffffffffffffffffffffffffffff168152602001908152602001600020546007546127fa565b1115610da6576040517f08c379a0000000000000000000000000000000000000000000000000000000008152600401808060200182810382526021815260200180612f636021913960400191505060405180910390fd5b610dae61116d565b610dba6003548261263d565b600381905550610e09600b60003373ffffffffffffffffffffffffffffffffffffffff1673ffffffffffffffffffffffffffffffffffffffff168152602001908152602001600020548261263d565b600b60003373ffffffffffffffffffffffffffffffffffffffff1673ffffffffffffffffffffffffffffffffffffffff168152602001908152602001600020819055506000600b60003373ffffffffffffffffffffffffffffffffffffffff1673ffffffffffffffffffffffffffffffffffffffff168152602001908152602001600020541415610eed576000600e60003373ffffffffffffffffffffffffffffffffffffffff1673ffffffffffffffffffffffffffffffffffffffff16815260200190815260200160002060006101000a81548160ff0219169083151502179055505b610f3a3382600260009054906101000a900473ffffffffffffffffffffffffffffffffffffffff1673ffffffffffffffffffffffffffffffffffffffff166128cc9092919063ffffffff16565b50565b6000809054906101000a900473ffffffffffffffffffffffffffffffffffffffff1673ffffffffffffffffffffffffffffffffffffffff163373ffffffffffffffffffffffffffffffffffffffff1614610f9657600080fd5b662c893c58f7243c8111158015610fb45750660be0545bfda3438110155b611009576040517f08c379a0000000000000000000000000000000000000000000000000000000008152600401808060200182810382526024815260200180612f0b6024913960400191505060405180910390fd5b8060138190555050565b6000809054906101000a900473ffffffffffffffffffffffffffffffffffffffff1673ffffffffffffffffffffffffffffffffffffffff163373ffffffffffffffffffffffffffffffffffffffff16146110d5576040517f08c379a000000000000000000000000000000000000000000000000000000000815260040180806020018281038252600a8152602001807f6f6e6c79206f776e65720000000000000000000000000000000000000000000081525060200191505060405180910390fd5b8060078190555050565b6060600a80548060200260200160405190810160405280929190818152602001828054801561116357602002820191906000526020600020905b8160009054906101000a900473ffffffffffffffffffffffffffffffffffffffff1673ffffffffffffffffffffffffffffffffffffffff1681526020019060010190808311611119575b5050505050905090565b60011515600e60003373ffffffffffffffffffffffffffffffffffffffff1673ffffffffffffffffffffffffffffffffffffffff16815260200190815260200160002060009054906101000a900460ff16151514611233576040517f08c379a000000000000000000000000000000000000000000000000000000000815260040180806020018281038252601a8152602001807f4572726f722c206e6f2070726576696f7573206465706f73697400000000000081525060200191505060405180910390fd5b6000600c60003373ffffffffffffffffffffffffffffffffffffffff1673ffffffffffffffffffffffffffffffffffffffff16815260200190815260200160002054116112e8576040517f08c379a000000000000000000000000000000000000000000000000000000000815260040180806020018281038252600e8152602001807f6e6f20686172766573742079657400000000000000000000000000000000000081525060200191505060405180910390fd5b600160009054906101000a900473ffffffffffffffffffffffffffffffffffffffff1673ffffffffffffffffffffffffffffffffffffffff166370a08231336040518263ffffffff1660e01b8152600401808273ffffffffffffffffffffffffffffffffffffffff1673ffffffffffffffffffffffffffffffffffffffff16815260200191505060206040518083038186803b15801561138757600080fd5b505afa15801561139b573d6000803e3d6000fd5b505050506040513d60208110156113b157600080fd5b810190808051906020019092919050505061140d600b60003373ffffffffffffffffffffffffffffffffffffffff1673ffffffffffffffffffffffffffffffffffffffff168152602001908152602001600020546007546127fa565b1115611464576040517f08c379a0000000000000000000000000000000000000000000000000000000008152600401808060200182810382526021815260200180612f636021913960400191505060405180910390fd5b600061146e6109c3565b9050600061147a612424565b90506000601160003373ffffffffffffffffffffffffffffffffffffffff1673ffffffffffffffffffffffffffffffffffffffff168152602001908152602001600020819055506000601060003373ffffffffffffffffffffffffffffffffffffffff1673ffffffffffffffffffffffffffffffffffffffff1681526020019081526020016000208190555042600c60003373ffffffffffffffffffffffffffffffffffffffff1673ffffffffffffffffffffffffffffffffffffffff168152602001908152602001600020819055506115973383600260009054906101000a900473ffffffffffffffffffffffffffffffffffffffff1673ffffffffffffffffffffffffffffffffffffffff166128cc9092919063ffffffff16565b600160009054906101000a900473ffffffffffffffffffffffffffffffffffffffff1673ffffffffffffffffffffffffffffffffffffffff166340c10f1933836040518363ffffffff1660e01b8152600401808373ffffffffffffffffffffffffffffffffffffffff1673ffffffffffffffffffffffffffffffffffffffff16815260200182815260200192505050600060405180830381600087803b15801561164057600080fd5b505af1158015611654573d6000803e3d6000fd5b505050505050565b600b6020528060005260406000206000915090505481565b6000600454905090565b600e6020528060005260406000206000915054906101000a900460ff1681565b60106020528060005260406000206000915090505481565b600960009054906101000a900473ffffffffffffffffffffffffffffffffffffffff1673ffffffffffffffffffffffffffffffffffffffff163373ffffffffffffffffffffffffffffffffffffffff161461171057600080fd5b61171d60035460046127fa565b61172982600454612844565b1061177f576040517f08c379a0000000000000000000000000000000000000000000000000000000008152600401808060200182810382526038815260200180612eb26038913960400191505060405180910390fd5b61178d6003546105b46127fa565b8111156117e5576040517f08c379a0000000000000000000000000000000000000000000000000000000008152600401808060200182810382526034815260200180612f2f6034913960400191505060405180910390fd5b6117f460085462014ff0612844565b4211611868576040517f08c379a000000000000000000000000000000000000000000000000000000000815260040180806020018281038252601d8152602001807f6f6e6c79206f6e65206275796261636b2070657220323420686f75727300000081525060200191505060405180910390fd5b4260088190555061187b60045482612844565b6004819055506118f0600960009054906101000a900473ffffffffffffffffffffffffffffffffffffffff1682600260009054906101000a900473ffffffffffffffffffffffffffffffffffffffff1673ffffffffffffffffffffffffffffffffffffffff166128cc9092919063ffffffff16565b50565b60085481565b600d6020528060005260406000206000915090505481565b6000809054906101000a900473ffffffffffffffffffffffffffffffffffffffff1673ffffffffffffffffffffffffffffffffffffffff163373ffffffffffffffffffffffffffffffffffffffff161461196a57600080fd5b61197760035460046127fa565b61198382600454612844565b106119d9576040517f08c379a0000000000000000000000000000000000000000000000000000000008152600401808060200182810382526038815260200180612eb26038913960400191505060405180910390fd5b6119e660035460056127fa565b6119f260055483612844565b10611a48576040517f08c379a0000000000000000000000000000000000000000000000000000000008152600401808060200182810382526034815260200180612f846034913960400191505060405180910390fd5b611a5481600454612844565b600481905550611a6681600554612844565b600581905550611ada6000809054906101000a900473ffffffffffffffffffffffffffffffffffffffff1682600260009054906101000a900473ffffffffffffffffffffffffffffffffffffffff1673ffffffffffffffffffffffffffffffffffffffff166128cc9092919063ffffffff16565b50565b6000809054906101000a900473ffffffffffffffffffffffffffffffffffffffff1673ffffffffffffffffffffffffffffffffffffffff163373ffffffffffffffffffffffffffffffffffffffff1614611b3657600080fd5b600454811115611b4557600080fd5b600554811115611b5457600080fd5b611b606004548261263d565b600481905550611b726005548261263d565b600581905550611bc7333083600260009054906101000a900473ffffffffffffffffffffffffffffffffffffffff1673ffffffffffffffffffffffffffffffffffffffff16612687909392919063ffffffff16565b50565b6000611c1542600c60008573ffffffffffffffffffffffffffffffffffffffff1673ffffffffffffffffffffffffffffffffffffffff1681526020019081526020016000205461263d565b90506000611c71611c696301e33731600b60008773ffffffffffffffffffffffffffffffffffffffff1673ffffffffffffffffffffffffffffffffffffffff16815260200190815260200160002054612774565b6012546127fa565b90506000611ccd611cc56301e33731600b60008873ffffffffffffffffffffffffffffffffffffffff1673ffffffffffffffffffffffffffffffffffffffff16815260200190815260200160002054612774565b6013546127fa565b905042600c60008673ffffffffffffffffffffffffffffffffffffffff1673ffffffffffffffffffffffffffffffffffffffff16815260200190815260200160002081905550611d65611d208385612774565b601160008773ffffffffffffffffffffffffffffffffffffffff1673ffffffffffffffffffffffffffffffffffffffff16815260200190815260200160002054612844565b601160008673ffffffffffffffffffffffffffffffffffffffff1673ffffffffffffffffffffffffffffffffffffffff16815260200190815260200160002081905550611dfa611db58285612774565b601060008773ffffffffffffffffffffffffffffffffffffffff1673ffffffffffffffffffffffffffffffffffffffff16815260200190815260200160002054612844565b601060008673ffffffffffffffffffffffffffffffffffffffff1673ffffffffffffffffffffffffffffffffffffffff1681526020019081526020016000208190555050505050565b60065481600354011115611ebf576040517f08c379a000000000000000000000000000000000000000000000000000000000815260040180806020018281038252600d8152602001807f5661756c742069732066756c6c0000000000000000000000000000000000000081525060200191505060405180910390fd5b600160009054906101000a900473ffffffffffffffffffffffffffffffffffffffff1673ffffffffffffffffffffffffffffffffffffffff166370a08231336040518263ffffffff1660e01b8152600401808273ffffffffffffffffffffffffffffffffffffffff1673ffffffffffffffffffffffffffffffffffffffff16815260200191505060206040518083038186803b158015611f5e57600080fd5b505afa158015611f72573d6000803e3d6000fd5b505050506040513d6020811015611f8857600080fd5b8101908080519060200190929190505050611fed611fe583600b60003373ffffffffffffffffffffffffffffffffffffffff1673ffffffffffffffffffffffffffffffffffffffff16815260200190815260200160002054612844565b6007546127fa565b1115612044576040517f08c379a0000000000000000000000000000000000000000000000000000000008152600401808060200182810382526021815260200180612f636021913960400191505060405180910390fd5b60011515600e60003373ffffffffffffffffffffffffffffffffffffffff1673ffffffffffffffffffffffffffffffffffffffff16815260200190815260200160002060009054906101000a900460ff161515146121685742600d60003373ffffffffffffffffffffffffffffffffffffffff1673ffffffffffffffffffffffffffffffffffffffff16815260200190815260200160002081905550600d60003373ffffffffffffffffffffffffffffffffffffffff1673ffffffffffffffffffffffffffffffffffffffff16815260200190815260200160002054600c60003373ffffffffffffffffffffffffffffffffffffffff1673ffffffffffffffffffffffffffffffffffffffff168152602001908152602001600020819055506121b6565b61217133611bca565b42600c60003373ffffffffffffffffffffffffffffffffffffffff1673ffffffffffffffffffffffffffffffffffffffff168152602001908152602001600020819055505b600f60003373ffffffffffffffffffffffffffffffffffffffff1673ffffffffffffffffffffffffffffffffffffffff16815260200190815260200160002060009054906101000a900460ff1661226b57600a339080600181540180825580915050600190039060005260206000200160009091909190916101000a81548173ffffffffffffffffffffffffffffffffffffffff021916908373ffffffffffffffffffffffffffffffffffffffff1602179055505b6001600e60003373ffffffffffffffffffffffffffffffffffffffff1673ffffffffffffffffffffffffffffffffffffffff16815260200190815260200160002060006101000a81548160ff0219169083151502179055506001600f60003373ffffffffffffffffffffffffffffffffffffffff1673ffffffffffffffffffffffffffffffffffffffff16815260200190815260200160002060006101000a81548160ff021916908315150217905550806003540160038190555061236f600b60003373ffffffffffffffffffffffffffffffffffffffff1673ffffffffffffffffffffffffffffffffffffffff1681526020019081526020016000205482612844565b600b60003373ffffffffffffffffffffffffffffffffffffffff1673ffffffffffffffffffffffffffffffffffffffff16815260200190815260200160002081905550612401333083600260009054906101000a900473ffffffffffffffffffffffffffffffffffffffff1673ffffffffffffffffffffffffffffffffffffffff16612687909392919063ffffffff16565b50565b600f6020528060005260406000206000915054906101000a900460ff1681565b60008061247042600c60003373ffffffffffffffffffffffffffffffffffffffff1673ffffffffffffffffffffffffffffffffffffffff1681526020019081526020016000205461263d565b905060006124cc6124c46301e33731600b60003373ffffffffffffffffffffffffffffffffffffffff1673ffffffffffffffffffffffffffffffffffffffff16815260200190815260200160002054612774565b6013546127fa565b905060006125226124dd8385612774565b601060003373ffffffffffffffffffffffffffffffffffffffff1673ffffffffffffffffffffffffffffffffffffffff16815260200190815260200160002054612844565b905080935050505090565b60075481565b6000809054906101000a900473ffffffffffffffffffffffffffffffffffffffff1673ffffffffffffffffffffffffffffffffffffffff163373ffffffffffffffffffffffffffffffffffffffff16146125f5576040517f08c379a00000000000000000000000000000000000000000000000000000000081526004018080602001828103825260138152602001807f6f6e6c7920636f6e7472616374206f776e65720000000000000000000000000081525060200191505060405180910390fd5b8060068190555050565b600960009054906101000a900473ffffffffffffffffffffffffffffffffffffffff1681565b600c6020528060005260406000206000915090505481565b600061267f83836040518060400160405280601e81526020017f536166654d6174683a207375627472616374696f6e206f766572666c6f770000815250612984565b905092915050565b61276e846323b872dd60e01b858585604051602401808473ffffffffffffffffffffffffffffffffffffffff1673ffffffffffffffffffffffffffffffffffffffff1681526020018373ffffffffffffffffffffffffffffffffffffffff1673ffffffffffffffffffffffffffffffffffffffff1681526020018281526020019350505050604051602081830303815290604052907bffffffffffffffffffffffffffffffffffffffffffffffffffffffff19166020820180517bffffffffffffffffffffffffffffffffffffffffffffffffffffffff8381831617835250505050612a44565b50505050565b60008083141561278757600090506127f4565b600082840290508284828161279857fe5b04146127ef576040517f08c379a0000000000000000000000000000000000000000000000000000000008152600401808060200182810382526021815260200180612eea6021913960400191505060405180910390fd5b809150505b92915050565b600061283c83836040518060400160405280601a81526020017f536166654d6174683a206469766973696f6e206279207a65726f000000000000815250612b33565b905092915050565b6000808284019050838110156128c2576040517f08c379a000000000000000000000000000000000000000000000000000000000815260040180806020018281038252601b8152602001807f536166654d6174683a206164646974696f6e206f766572666c6f77000000000081525060200191505060405180910390fd5b8091505092915050565b61297f8363a9059cbb60e01b8484604051602401808373ffffffffffffffffffffffffffffffffffffffff1673ffffffffffffffffffffffffffffffffffffffff16815260200182815260200192505050604051602081830303815290604052907bffffffffffffffffffffffffffffffffffffffffffffffffffffffff19166020820180517bffffffffffffffffffffffffffffffffffffffffffffffffffffffff8381831617835250505050612a44565b505050565b6000838311158290612a31576040517f08c379a00000000000000000000000000000000000000000000000000000000081526004018080602001828103825283818151815260200191508051906020019080838360005b838110156129f65780820151818401526020810190506129db565b50505050905090810190601f168015612a235780820380516001836020036101000a031916815260200191505b509250505060405180910390fd5b5060008385039050809150509392505050565b6060612aa6826040518060400160405280602081526020017f5361666542455032303a206c6f772d6c6576656c2063616c6c206661696c65648152508573ffffffffffffffffffffffffffffffffffffffff16612bf99092919063ffffffff16565b9050600081511115612b2e57808060200190516020811015612ac757600080fd5b8101908080519060200190929190505050612b2d576040517f08c379a000000000000000000000000000000000000000000000000000000000815260040180806020018281038252602a815260200180612e88602a913960400191505060405180910390fd5b5b505050565b60008083118290612bdf576040517f08c379a00000000000000000000000000000000000000000000000000000000081526004018080602001828103825283818151815260200191508051906020019080838360005b83811015612ba4578082015181840152602081019050612b89565b50505050905090810190601f168015612bd15780820380516001836020036101000a031916815260200191505b509250505060405180910390fd5b506000838581612beb57fe5b049050809150509392505050565b6060612c088484600085612c11565b90509392505050565b6060612c1c85612e17565b612c8e576040517f08c379a000000000000000000000000000000000000000000000000000000000815260040180806020018281038252601d8152602001807f416464726573733a2063616c6c20746f206e6f6e2d636f6e747261637400000081525060200191505060405180910390fd5b600060608673ffffffffffffffffffffffffffffffffffffffff1685876040518082805190602001908083835b60208310612cde5780518252602082019150602081019050602083039250612cbb565b6001836020036101000a03801982511681845116808217855250505050505090500191505060006040518083038185875af1925050503d8060008114612d40576040519150601f19603f3d011682016040523d82523d6000602084013e612d45565b606091505b50915091508115612d5a578092505050612e0f565b600081511115612d6d5780518082602001fd5b836040517f08c379a00000000000000000000000000000000000000000000000000000000081526004018080602001828103825283818151815260200191508051906020019080838360005b83811015612dd4578082015181840152602081019050612db9565b50505050905090810190601f168015612e015780820380516001836020036101000a031916815260200191505b509250505060405180910390fd5b949350505050565b60008060007fc5d2460186f7233c927e7db2dcc703c0e500b653ca82273b7bfad8045d85a47060001b9050833f9150808214158015612e5957506000801b8214155b9250505091905056fe43616e2774207769746864726177206d6f7265207468616e20796f7572206465706f7369745361666542455032303a204245503230206f7065726174696f6e20646964206e6f74207375636365656463616e2774207769746864726177206d6f7265207468616e20323525206f66207661756c74206265666f726520706179696e67206261636b536166654d6174683a206d756c7469706c69636174696f6e206f766572666c6f77415052206d757374206265206265747765656e203820616e642033302070657263656e7463616e6e6f74207769746864726177206d6f7265207468616e2065737461626c6973686564206275796261636b20616d6f756e74696e73756666696369656e74204c414e4420746f6b656e20686f6c64696e67732e63616e2774207769746864726177206d6f7265207468616e20323025206f66207661756c7420666f72207969656c64206661726da26469706673582212204b36d6878497c432c07a0ecf4c452cf1ed0fd707d81d978641ac9d7057d2998764736f6c63430006020033",
    "source": "pragma solidity ^0.6.0;\n\nimport \"./LandToken.sol\";\nimport './buyback.sol';\nimport '@pancakeswap/pancake-swap-lib/contracts/token/BEP20/SafeBEP20.sol';\n\ncontract stake {\n    \n    using SafeMath for uint256; \n    using SafeBEP20 for IBEP20;\n\n    address owner;\n    LandToken private token;\n    IBEP20 private busd = BEP20(0xe9e7CEA3DedcA5984780Bafc599bD69ADd087D56); \n    uint public totalVaultAmount; \n    uint private amountOut; \n    uint public yieldFarm; \n    uint public totalVaultCapacity = 346000000000000000000000; \n    uint public landRatio = 8; \n    uint public lastBuyBack = 0; \n    address public buyback; \n    address[] private stakers; \n    \n    mapping(address => uint) public balanceOf; //percentage of total vault capacity in wei \n    mapping(address => uint) public depositStart; \n    mapping(address => uint) public initialDepositStart;\n    mapping(address => bool) public isDeposited; \n    // mapping(address => uint) public harvestAmountBUSD;\n    // mapping(address => uint) public harvestAmountLand;\n    mapping(address => bool) public hasStaked; \n\n    mapping(address => uint) public bankedHarvestLand;\n    mapping(address => uint) public bankedHarvestBUSD;  \n\n    uint currentAPR = 7714333082402223; //stable coin apr, for conversion see below\n    uint landAPR = 12535791258903612;  // land token apr (relative to a $1 land token, mulitply by land token price for actual apr), for conversion see below \n\n    // 1002863300712289 / desiredAPR = contract adjusted APR \n    // 1002863300712289 / 0.1 = approx 1e16 \n    // 1002863300712289 / 0.2 = approx 5e15\n    // 0.25 = 4e15\n    // 0.3 = 33e14\n    // 1 = 1e15\n   \n\n   \n    \n    constructor(LandToken _token, address _buyback, address _owner) public {\n        owner = _owner; \n        token = _token; \n        buyback = _buyback;\n    }\n    \n    //changes vault capacity, to be used when new properties obtained or liquidated \n    function changeVaultCapacity(uint newCapacity) public {\n        require(msg.sender==owner, 'only contract owner'); \n        totalVaultCapacity = newCapacity; \n    }\n\n    function changeLandRatio(uint newRatio) public {\n        require(msg.sender==owner, 'only owner'); \n        landRatio = newRatio; \n    }\n\n    function setCurrentAPR(uint newAPR) public {\n        require(msg.sender==owner);\n        require(newAPR <= 12535791258903612 && newAPR >= 3342877669040963, \"APR must be between 8 and 30 percent\");\n        currentAPR = newAPR; \n    }\n    \n    function setLandAPR(uint newAPR) public {\n        require(msg.sender==owner);\n        require(newAPR <= 12535791258903612 && newAPR >= 3342877669040963, \"APR must be between 8 and 30 percent\");\n        landAPR = newAPR; \n\n    }\n\n\n    function deposit(uint amountSpend) public {\n        require(totalVaultAmount + amountSpend <= totalVaultCapacity, 'Vault is full'); \n        require(SafeMath.div(SafeMath.add(amountSpend, balanceOf[msg.sender]), landRatio) <= token.balanceOf(msg.sender), \"insufficient LAND token holdings.\");\n\n        \n\n        if (isDeposited[msg.sender] != true) {\n            initialDepositStart[msg.sender] = block.timestamp;\n            depositStart[msg.sender] = initialDepositStart[msg.sender]; \n        }\n        else {\n            storeHarvest(msg.sender);\n            depositStart[msg.sender] = block.timestamp; \n        }\n        \n    \n        if (!hasStaked[msg.sender]) {\n            stakers.push(msg.sender); \n        }\n        \n        isDeposited[msg.sender] = true;  \n        hasStaked[msg.sender] = true;\n       \n        totalVaultAmount = totalVaultAmount + amountSpend; \n        balanceOf[msg.sender] = SafeMath.add(balanceOf[msg.sender], amountSpend);\n\n        busd.safeTransferFrom(msg.sender, address(this), amountSpend);\n\n        \n    }\n    function withdraw(uint amount) public {\n        require(isDeposited[msg.sender]==true, \"Error, no previous deposit\");\n        require(amount <= balanceOf[msg.sender], \"Can't withdraw more than your deposit\"); \n        require(SafeMath.div(balanceOf[msg.sender], landRatio) <= token.balanceOf(msg.sender), \"insufficient LAND token holdings.\");\n        harvest(); \n\n        //reset deposit data\n        totalVaultAmount = SafeMath.sub(totalVaultAmount, amount); \n        balanceOf[msg.sender] = SafeMath.sub(balanceOf[msg.sender], amount);\n        if(balanceOf[msg.sender]==0){\n            isDeposited[msg.sender] = false; \n        }\n        \n        //send back their balance\n        busd.safeTransfer(msg.sender, amount);\n\n        \n    }\n    function harvest() public {\n        require(isDeposited[msg.sender]==true, \"Error, no previous deposit\");\n        require(depositStart[msg.sender] > 0, \"no harvest yet\"); \n        require(SafeMath.div(balanceOf[msg.sender], landRatio) <= token.balanceOf(msg.sender), \"insufficient LAND token holdings.\");\n        \n        //interest calc BUSD\n        uint _harvestAmountBUSD = getHarvestAmountBUSD();\n        \n        \n        //interest calc LAND \n        uint _harvestAmountLand = getHarvestAmountLand();\n        \n        //reset harvest amount and deposit start time \n        bankedHarvestBUSD[msg.sender] = 0;\n        bankedHarvestLand[msg.sender] = 0; \n        depositStart[msg.sender] = block.timestamp;\n\n        busd.safeTransfer(msg.sender, _harvestAmountBUSD);\n        token.mint(msg.sender, _harvestAmountLand); \n\n       \n    }\n\n \n    function getHarvestAmountBUSD() public view returns (uint) {\n        uint depositTime = SafeMath.sub(block.timestamp, depositStart[msg.sender]); \n        uint interestPerSecond = SafeMath.div(SafeMath.mul(31668017, balanceOf[msg.sender]), currentAPR);\n        uint harvestAmount = SafeMath.add(SafeMath.mul(interestPerSecond, depositTime), bankedHarvestBUSD[msg.sender]);  \n        return harvestAmount;\n    }\n    \n    function getHarvestAmountLand() public view returns (uint) {\n        uint depositTime = SafeMath.sub(block.timestamp, depositStart[msg.sender]); \n        uint interestPerSecond = SafeMath.div(SafeMath.mul(31668017, balanceOf[msg.sender]), landAPR);\n        uint harvestAmount = SafeMath.add(SafeMath.mul(interestPerSecond, depositTime), bankedHarvestLand[msg.sender]);  \n        return harvestAmount;\n    }\n\n    //allows buyback contract to withdraw up to 25% of vault funds for buybacks\n    function adminWithdraw(uint amount) public {\n        require(msg.sender==buyback); \n        require(SafeMath.add(amount, amountOut) < SafeMath.div(totalVaultAmount, 4), \"can't withdraw more than 25% of vault before paying back\");\n        require(amount <= SafeMath.div(totalVaultAmount, 1460), \"cannot withdraw more than established buyback amount\");\n        require(block.timestamp > SafeMath.add(lastBuyBack, 86000), \"only one buyback per 24 hours\");\n    \n       lastBuyBack = block.timestamp; \n        amountOut = SafeMath.add(amountOut, amount); \n         busd.safeTransfer(buyback, amount); \n    }\n\n    function yieldFarming(uint amount) public {\n        require(msg.sender==owner);\n        require(SafeMath.add(amount, amountOut) < SafeMath.div(totalVaultAmount, 4), \"can't withdraw more than 25% of vault before paying back\");\n        require(SafeMath.add(yieldFarm, amount) < SafeMath.div(totalVaultAmount, 5), \"can't withdraw more than 20% of vault for yield farm\");\n        amountOut = SafeMath.add(amount, amountOut); \n        yieldFarm = SafeMath.add(amount, yieldFarm);\n        busd.safeTransfer(owner, amount); \n    }\n\n    //this is how admins put the money back into the vault after withdrawing. \n    function adminDeposit(uint amount) public {\n        require(msg.sender==owner); \n        require(amount <= amountOut);\n        amountOut = SafeMath.sub(amountOut, amount); \n        busd.safeTransferFrom(msg.sender, address(this), amount); \n        \n    }\n    \n    function yieldFarmDeposit(uint amount) public {\n        require(msg.sender==owner); \n        require(amount <= amountOut);\n        require(amount <= yieldFarm);\n        amountOut = SafeMath.sub(amountOut, amount); \n        yieldFarm = SafeMath.sub(yieldFarm, amount); \n        busd.safeTransferFrom(msg.sender, address(this), amount); \n        \n    }\n    \n\n    //function to invoke a harvest banking, used when APR values need to be changed but existing harvest value must be retained.\n    //also called when additonal deposit is made\n    \n    function storeHarvest(address x) public {\n     \n                //bank BUSD harvest calc\n                uint depositTime = SafeMath.sub(block.timestamp, depositStart[x]); \n                uint interestPerSecondBUSD = SafeMath.div(SafeMath.mul(31668017, balanceOf[x]), currentAPR);\n                \n              \n                //bank Land Harvest calc\n                uint interestPerSecondLand = SafeMath.div(SafeMath.mul(31668017, balanceOf[x]), landAPR);\n                \n               \n                //reset deposit start time \n                depositStart[x] = block.timestamp;\n\n                //set banked harvest \n                bankedHarvestBUSD[x] = SafeMath.add(SafeMath.mul(interestPerSecondBUSD, depositTime), bankedHarvestBUSD[x]); \n                bankedHarvestLand[x] = SafeMath.add(SafeMath.mul(interestPerSecondLand, depositTime), bankedHarvestLand[x]);  \n                \n    }\n\n \n    function getAmountWithdrawn() public view returns (uint){\n        return amountOut; \n    }\n    function getStakers() public view returns (address[] memory ) {\n        return stakers; \n    }\n  \n}\n",
    "sourcePath": "/home/no/Desktop/ls/LS_FINAL_TEST/contracts/stake.sol",
    "compiler": {
        "name": "solc",
        "version": "0.6.2+commit.bacdbe57.Emscripten.clang"
    },
    "schemaVersion": "3.4.2",
    "updatedAt": "2021-08-02T08:36:14.986Z",
    "networkType": "ethereum",
    "devdoc": {
        "methods": {}
    },
    "userdoc": {
        "methods": {}
    }
}