{
  "_format": "hh-sol-artifact-1",
  "contractName": "Stake",
  "sourceName": "contracts/core/Stake.sol",
  "abi": [
    {
      "inputs": [
        {
          "internalType": "address",
          "name": "_houseAddress",
          "type": "address"
        },
        {
          "internalType": "address",
          "name": "_assetToken",
          "type": "address"
        },
        {
          "internalType": "address",
          "name": "_landToken",
          "type": "address"
        }
      ],
      "stateMutability": "nonpayable",
      "type": "constructor"
    },
    {
      "anonymous": false,
      "inputs": [
        {
          "indexed": true,
          "internalType": "address",
          "name": "previousOwner",
          "type": "address"
        },
        {
          "indexed": true,
          "internalType": "address",
          "name": "newOwner",
          "type": "address"
        }
      ],
      "name": "OwnershipTransferred",
      "type": "event"
    },
    {
      "anonymous": false,
      "inputs": [
        {
          "indexed": true,
          "internalType": "address",
          "name": "user",
          "type": "address"
        },
        {
          "indexed": true,
          "internalType": "uint256",
          "name": "tokenId",
          "type": "uint256"
        },
        {
          "indexed": false,
          "internalType": "uint256",
          "name": "amount",
          "type": "uint256"
        }
      ],
      "name": "Stake",
      "type": "event"
    },
    {
      "anonymous": false,
      "inputs": [
        {
          "indexed": true,
          "internalType": "address",
          "name": "user",
          "type": "address"
        },
        {
          "indexed": true,
          "internalType": "uint256",
          "name": "tokenId",
          "type": "uint256"
        },
        {
          "indexed": false,
          "internalType": "uint256",
          "name": "amount",
          "type": "uint256"
        }
      ],
      "name": "Unstake",
      "type": "event"
    },
    {
      "inputs": [
        {
          "internalType": "address",
          "name": "",
          "type": "address"
        }
      ],
      "name": "amountStaked",
      "outputs": [
        {
          "internalType": "uint256",
          "name": "",
          "type": "uint256"
        }
      ],
      "stateMutability": "view",
      "type": "function"
    },
    {
      "inputs": [
        {
          "internalType": "address",
          "name": "",
          "type": "address"
        }
      ],
      "name": "hasStaked",
      "outputs": [
        {
          "internalType": "bool",
          "name": "",
          "type": "bool"
        }
      ],
      "stateMutability": "view",
      "type": "function"
    },
    {
      "inputs": [],
      "name": "owner",
      "outputs": [
        {
          "internalType": "address",
          "name": "",
          "type": "address"
        }
      ],
      "stateMutability": "view",
      "type": "function"
    },
    {
      "inputs": [],
      "name": "renounceOwnership",
      "outputs": [],
      "stateMutability": "nonpayable",
      "type": "function"
    },
    {
      "inputs": [
        {
          "internalType": "address",
          "name": "_address",
          "type": "address"
        }
      ],
      "name": "setHouseContractAddress",
      "outputs": [],
      "stateMutability": "nonpayable",
      "type": "function"
    },
    {
      "inputs": [
        {
          "internalType": "uint256",
          "name": "amount",
          "type": "uint256"
        },
        {
          "internalType": "uint256",
          "name": "tokenId",
          "type": "uint256"
        }
      ],
      "name": "stake",
      "outputs": [],
      "stateMutability": "payable",
      "type": "function"
    },
    {
      "inputs": [
        {
          "internalType": "address",
          "name": "newOwner",
          "type": "address"
        }
      ],
      "name": "transferOwnership",
      "outputs": [],
      "stateMutability": "nonpayable",
      "type": "function"
    },
    {
      "inputs": [
        {
          "internalType": "uint256",
          "name": "amount",
          "type": "uint256"
        },
        {
          "internalType": "uint256",
          "name": "tokenId",
          "type": "uint256"
        }
      ],
      "name": "unstake",
      "outputs": [],
      "stateMutability": "nonpayable",
      "type": "function"
    }
  ],
  "bytecode": "0x608060405234801561001057600080fd5b50604051610d11380380610d1183398101604081905261002f916100e6565b6100383361007a565b600180546001600160a01b039485166001600160a01b031991821617909155600280549385169382169390931790925560038054919093169116179055610128565b600080546001600160a01b038381166001600160a01b0319831681178455604051919092169283917f8be0079c531659141344cd1fd0a4f28419497f9722a3daafe3b4186f6b6457e09190a35050565b80516001600160a01b03811681146100e157600080fd5b919050565b6000806000606084860312156100fa578283fd5b610103846100ca565b9250610111602085016100ca565b915061011f604085016100ca565b90509250925092565b610bda806101376000396000f3fe60806040526004361061007b5760003560e01c8063c93c8f341161004e578063c93c8f34146100f7578063dcd663c214610137578063ef40a67014610157578063f2fde38b1461019257600080fd5b8063715018a6146100805780637b0472f0146100975780638da5cb5b146100aa5780639e2c8a5b146100d7575b600080fd5b34801561008c57600080fd5b506100956101b2565b005b6100956100a5366004610af4565b6101f1565b3480156100b657600080fd5b506000546040516001600160a01b0390911681526020015b60405180910390f35b3480156100e357600080fd5b506100956100f2366004610af4565b61054f565b34801561010357600080fd5b50610127610112366004610a62565b60056020526000908152604090205460ff1681565b60405190151581526020016100ce565b34801561014357600080fd5b50610095610152366004610a62565b610916565b34801561016357600080fd5b50610184610172366004610a62565b60046020526000908152604090205481565b6040519081526020016100ce565b34801561019e57600080fd5b506100956101ad366004610a62565b610962565b6000546001600160a01b031633146101e55760405162461bcd60e51b81526004016101dc90610b15565b60405180910390fd5b6101ef60006109fd565b565b6001546040516318b9af1f60e01b815260048101839052600091829182916001600160a01b0316906318b9af1f9060240160606040518083038186803b15801561023a57600080fd5b505afa15801561024e573d6000803e3d6000fd5b505050506040513d601f19601f820116820180604052508101906102729190610a85565b9194509250905080156102b75760405162461bcd60e51b815260206004820152600d60248201526c121bdd5cd9481a5cc819195859609a1b60448201526064016101dc565b6001600160a01b03831633146103095760405162461bcd60e51b8152602060048201526017602482015276165bdd48191bc81b9bdd081bdddb881d1a1a5cc8139195604a1b60448201526064016101dc565b8161034c5760405162461bcd60e51b81526020600482015260136024820152721058dd1a5d985d1a5bdb881c995c5d5a5c9959606a1b60448201526064016101dc565b600085116103895760405162461bcd60e51b815260206004820152600a602482015269139bc811195c1bdcda5d60b21b60448201526064016101dc565b6002546040516323b872dd60e01b8152336004820152306024820152604481018790526001600160a01b03909116906323b872dd90606401602060405180830381600087803b1580156103db57600080fd5b505af11580156103ef573d6000803e3d6000fd5b505050506040513d601f19601f820116820180604052508101906104139190610ac2565b50600154604051631c57762b60e31b815260048101869052602481018790526001600160a01b039091169063e2bbb15890604401600060405180830381600087803b15801561046157600080fd5b505af1158015610475573d6000803e3d6000fd5b50503360009081526004602052604081208054899450909250610499908490610b4a565b90915550503360009081526005602052604090205460ff16610510576006805460018181019092557ff652222313e28459528d920b65115c16c04f3efc82aaedc97be59f3f377c0d3f0180546001600160a01b031916339081179091556000908152600560205260409020805460ff191690911790555b604051858152849033907f5af417134f72a9d41143ace85b0a26dce6f550f894f2cbc1eeee8810603d91b6906020015b60405180910390a35050505050565b6001546040516318b9af1f60e01b815260048101839052600091829182916001600160a01b0316906318b9af1f9060240160606040518083038186803b15801561059857600080fd5b505afa1580156105ac573d6000803e3d6000fd5b505050506040513d601f19601f820116820180604052508101906105d09190610a85565b919450925090506001600160a01b03831633146106295760405162461bcd60e51b8152602060048201526017602482015276165bdd48191bc81b9bdd081bdddb881d1a1a5cc8139195604a1b60448201526064016101dc565b8161066c5760405162461bcd60e51b81526020600482015260136024820152721058dd1a5d985d1a5bdb881c995c5d5a5c9959606a1b60448201526064016101dc565b600085116106aa5760405162461bcd60e51b815260206004820152600b60248201526a4e6f20576974686472617760a81b60448201526064016101dc565b60015460405163487d66ad60e11b81526004810186905286916001600160a01b0316906390facd5a9060240160206040518083038186803b1580156106ee57600080fd5b505afa158015610702573d6000803e3d6000fd5b505050506040513d601f19601f820116820180604052508101906107269190610adc565b10156107745760405162461bcd60e51b815260206004820152601a60248201527f5769746864726177206d6f7265207468616e2062616c616e636500000000000060448201526064016101dc565b336000908152600460205260409020548511156107d35760405162461bcd60e51b815260206004820152601a60248201527f5769746864726177206d6f7265207468616e2062616c616e636500000000000060448201526064016101dc565b60025460405163a9059cbb60e01b8152336004820152602481018790526001600160a01b039091169063a9059cbb90604401602060405180830381600087803b15801561081f57600080fd5b505af1158015610833573d6000803e3d6000fd5b505050506040513d601f19601f820116820180604052508101906108579190610ac2565b50600154604051630441a3e760e41b815260048101869052602481018790526001600160a01b039091169063441a3e7090604401600060405180830381600087803b1580156108a557600080fd5b505af11580156108b9573d6000803e3d6000fd5b505033600090815260046020526040812080548994509092506108dd908490610b62565b9091555050604051858152849033907ff960dbf9e5d0682f7a298ed974e33a28b4464914b7a2bfac12ae419a9afeb28090602001610540565b6000546001600160a01b031633146109405760405162461bcd60e51b81526004016101dc90610b15565b600180546001600160a01b0319166001600160a01b0392909216919091179055565b6000546001600160a01b0316331461098c5760405162461bcd60e51b81526004016101dc90610b15565b6001600160a01b0381166109f15760405162461bcd60e51b815260206004820152602660248201527f4f776e61626c653a206e6577206f776e657220697320746865207a65726f206160448201526564647265737360d01b60648201526084016101dc565b6109fa816109fd565b50565b600080546001600160a01b038381166001600160a01b0319831681178455604051919092169283917f8be0079c531659141344cd1fd0a4f28419497f9722a3daafe3b4186f6b6457e09190a35050565b80518015158114610a5d57600080fd5b919050565b600060208284031215610a73578081fd5b8135610a7e81610b8f565b9392505050565b600080600060608486031215610a99578182fd5b8351610aa481610b8f565b9250610ab260208501610a4d565b9150604084015190509250925092565b600060208284031215610ad3578081fd5b610a7e82610a4d565b600060208284031215610aed578081fd5b5051919050565b60008060408385031215610b06578182fd5b50508035926020909101359150565b6020808252818101527f4f776e61626c653a2063616c6c6572206973206e6f7420746865206f776e6572604082015260600190565b60008219821115610b5d57610b5d610b79565b500190565b600082821015610b7457610b74610b79565b500390565b634e487b7160e01b600052601160045260246000fd5b6001600160a01b03811681146109fa57600080fdfea26469706673582212208fa2a3c2029afac83c0714cb5fa92415ff5c6e516991a1fd90b6eba2337b48d264736f6c63430008040033",
  "linkReferences": {},
  "deployedLinkReferences": {}
}